{
  "_format": "hh-sol-artifact-1",
  "contractName": "MyERC721v2",
  "sourceName": "contracts/sample_upgradeable_ERC721/MyERC721_v2.sol",
  "abi": [
    {
      "anonymous": false,
      "inputs": [
        {
          "indexed": true,
          "internalType": "address",
          "name": "owner",
          "type": "address"
        },
        {
          "indexed": true,
          "internalType": "address",
          "name": "approved",
          "type": "address"
        },
        {
          "indexed": true,
          "internalType": "uint256",
          "name": "tokenId",
          "type": "uint256"
        }
      ],
      "name": "Approval",
      "type": "event"
    },
    {
      "anonymous": false,
      "inputs": [
        {
          "indexed": true,
          "internalType": "address",
          "name": "owner",
          "type": "address"
        },
        {
          "indexed": true,
          "internalType": "address",
          "name": "operator",
          "type": "address"
        },
        {
          "indexed": false,
          "internalType": "bool",
          "name": "approved",
          "type": "bool"
        }
      ],
      "name": "ApprovalForAll",
      "type": "event"
    },
    {
      "anonymous": false,
      "inputs": [
        {
          "indexed": false,
          "internalType": "string",
          "name": "name",
          "type": "string"
        }
      ],
      "name": "NameChanged",
      "type": "event"
    },
    {
      "anonymous": false,
      "inputs": [
        {
          "indexed": true,
          "internalType": "address",
          "name": "from",
          "type": "address"
        },
        {
          "indexed": true,
          "internalType": "address",
          "name": "to",
          "type": "address"
        },
        {
          "indexed": true,
          "internalType": "uint256",
          "name": "tokenId",
          "type": "uint256"
        }
      ],
      "name": "Transfer",
      "type": "event"
    },
    {
      "inputs": [
        {
          "internalType": "address",
          "name": "to",
          "type": "address"
        },
        {
          "internalType": "uint256",
          "name": "tokenId",
          "type": "uint256"
        }
      ],
      "name": "approve",
      "outputs": [],
      "stateMutability": "nonpayable",
      "type": "function"
    },
    {
      "inputs": [
        {
          "internalType": "address",
          "name": "owner",
          "type": "address"
        }
      ],
      "name": "balanceOf",
      "outputs": [
        {
          "internalType": "uint256",
          "name": "",
          "type": "uint256"
        }
      ],
      "stateMutability": "view",
      "type": "function"
    },
    {
      "inputs": [
        {
          "internalType": "uint256",
          "name": "tokenId",
          "type": "uint256"
        }
      ],
      "name": "getApproved",
      "outputs": [
        {
          "internalType": "address",
          "name": "",
          "type": "address"
        }
      ],
      "stateMutability": "view",
      "type": "function"
    },
    {
      "inputs": [
        {
          "internalType": "string",
          "name": "name",
          "type": "string"
        },
        {
          "internalType": "string",
          "name": "symbol",
          "type": "string"
        }
      ],
      "name": "initialize",
      "outputs": [],
      "stateMutability": "nonpayable",
      "type": "function"
    },
    {
      "inputs": [
        {
          "internalType": "address",
          "name": "owner",
          "type": "address"
        },
        {
          "internalType": "address",
          "name": "operator",
          "type": "address"
        }
      ],
      "name": "isApprovedForAll",
      "outputs": [
        {
          "internalType": "bool",
          "name": "",
          "type": "bool"
        }
      ],
      "stateMutability": "view",
      "type": "function"
    },
    {
      "inputs": [],
      "name": "name",
      "outputs": [
        {
          "internalType": "string",
          "name": "",
          "type": "string"
        }
      ],
      "stateMutability": "view",
      "type": "function"
    },
    {
      "inputs": [
        {
          "internalType": "uint256",
          "name": "tokenId",
          "type": "uint256"
        }
      ],
      "name": "ownerOf",
      "outputs": [
        {
          "internalType": "address",
          "name": "",
          "type": "address"
        }
      ],
      "stateMutability": "view",
      "type": "function"
    },
    {
      "inputs": [
        {
          "internalType": "address",
          "name": "from",
          "type": "address"
        },
        {
          "internalType": "address",
          "name": "to",
          "type": "address"
        },
        {
          "internalType": "uint256",
          "name": "tokenId",
          "type": "uint256"
        }
      ],
      "name": "safeTransferFrom",
      "outputs": [],
      "stateMutability": "nonpayable",
      "type": "function"
    },
    {
      "inputs": [
        {
          "internalType": "address",
          "name": "from",
          "type": "address"
        },
        {
          "internalType": "address",
          "name": "to",
          "type": "address"
        },
        {
          "internalType": "uint256",
          "name": "tokenId",
          "type": "uint256"
        },
        {
          "internalType": "bytes",
          "name": "_data",
          "type": "bytes"
        }
      ],
      "name": "safeTransferFrom",
      "outputs": [],
      "stateMutability": "nonpayable",
      "type": "function"
    },
    {
      "inputs": [
        {
          "internalType": "address",
          "name": "operator",
          "type": "address"
        },
        {
          "internalType": "bool",
          "name": "approved",
          "type": "bool"
        }
      ],
      "name": "setApprovalForAll",
      "outputs": [],
      "stateMutability": "nonpayable",
      "type": "function"
    },
    {
      "inputs": [
        {
          "internalType": "string",
          "name": "_testName",
          "type": "string"
        }
      ],
      "name": "setName",
      "outputs": [],
      "stateMutability": "nonpayable",
      "type": "function"
    },
    {
      "inputs": [
        {
          "internalType": "bytes4",
          "name": "interfaceId",
          "type": "bytes4"
        }
      ],
      "name": "supportsInterface",
      "outputs": [
        {
          "internalType": "bool",
          "name": "",
          "type": "bool"
        }
      ],
      "stateMutability": "view",
      "type": "function"
    },
    {
      "inputs": [],
      "name": "symbol",
      "outputs": [
        {
          "internalType": "string",
          "name": "",
          "type": "string"
        }
      ],
      "stateMutability": "view",
      "type": "function"
    },
    {
      "inputs": [],
      "name": "testName",
      "outputs": [
        {
          "internalType": "string",
          "name": "",
          "type": "string"
        }
      ],
      "stateMutability": "view",
      "type": "function"
    },
    {
      "inputs": [
        {
          "internalType": "uint256",
          "name": "tokenId",
          "type": "uint256"
        }
      ],
      "name": "tokenURI",
      "outputs": [
        {
          "internalType": "string",
          "name": "",
          "type": "string"
        }
      ],
      "stateMutability": "view",
      "type": "function"
    },
    {
      "inputs": [
        {
          "internalType": "address",
          "name": "from",
          "type": "address"
        },
        {
          "internalType": "address",
          "name": "to",
          "type": "address"
        },
        {
          "internalType": "uint256",
          "name": "tokenId",
          "type": "uint256"
        }
      ],
      "name": "transferFrom",
      "outputs": [],
      "stateMutability": "nonpayable",
      "type": "function"
    }
  ],
  "bytecode": "0x608060405234801561001057600080fd5b506117d6806100206000396000f3fe608060405234801561001057600080fd5b50600436106101005760003560e01c806370a0823111610097578063c47f002711610066578063c47f00271461021d578063c87b56dd14610230578063cc8668de14610243578063e985e9c51461024b57600080fd5b806370a08231146101ce57806395d89b41146101ef578063a22cb465146101f7578063b88d4fde1461020a57600080fd5b806323b872dd116100d357806323b872dd1461018257806342842e0e146101955780634cd88b76146101a85780636352211e146101bb57600080fd5b806301ffc9a71461010557806306fdde031461012d578063081812fc14610142578063095ea7b31461016d575b600080fd5b61011861011336600461132e565b610287565b60405190151581526020015b60405180910390f35b6101356102d9565b60405161012491906114c5565b610155610150366004611415565b61036b565b6040516001600160a01b039091168152602001610124565b61018061017b366004611305565b610405565b005b610180610190366004611217565b61051b565b6101806101a3366004611217565b61054c565b6101806101b6366004611366565b610567565b6101556101c9366004611415565b610697565b6101e16101dc3660046111cb565b61070e565b604051908152602001610124565b610135610795565b6101806102053660046112cb565b6107a4565b610180610218366004611252565b6107b3565b61018061022b3660046113cf565b6107eb565b61013561023e366004611415565b61083a565b610135610922565b6101186102593660046111e5565b6001600160a01b039182166000908152606a6020908152604080832093909416825291909152205460ff1690565b60006001600160e01b031982166380ac58cd60e01b14806102b857506001600160e01b03198216635b5e139f60e01b145b806102d357506301ffc9a760e01b6001600160e01b03198316145b92915050565b6060606580546102e8906116db565b80601f0160208091040260200160405190810160405280929190818152602001828054610314906116db565b80156103615780601f1061033657610100808354040283529160200191610361565b820191906000526020600020905b81548152906001019060200180831161034457829003601f168201915b5050505050905090565b6000818152606760205260408120546001600160a01b03166103e95760405162461bcd60e51b815260206004820152602c60248201527f4552433732313a20617070726f76656420717565727920666f72206e6f6e657860448201526b34b9ba32b73a103a37b5b2b760a11b60648201526084015b60405180910390fd5b506000908152606960205260409020546001600160a01b031690565b600061041082610697565b9050806001600160a01b0316836001600160a01b0316141561047e5760405162461bcd60e51b815260206004820152602160248201527f4552433732313a20617070726f76616c20746f2063757272656e74206f776e656044820152603960f91b60648201526084016103e0565b336001600160a01b038216148061049a575061049a8133610259565b61050c5760405162461bcd60e51b815260206004820152603860248201527f4552433732313a20617070726f76652063616c6c6572206973206e6f74206f7760448201527f6e6572206e6f7220617070726f76656420666f7220616c6c000000000000000060648201526084016103e0565b61051683836109b0565b505050565b6105253382610a1e565b6105415760405162461bcd60e51b81526004016103e0906115d0565b610516838383610b15565b610516838383604051806020016040528060008152506107b3565b600054610100900460ff166105825760005460ff1615610586565b303b155b6105e95760405162461bcd60e51b815260206004820152602e60248201527f496e697469616c697a61626c653a20636f6e747261637420697320616c72656160448201526d191e481a5b9a5d1a585b1a5e995960921b60648201526084016103e0565b600054610100900460ff1615801561060b576000805461ffff19166101011790555b61067e85858080601f01602080910402602001604051908101604052809392919081815260200183838082843760009201919091525050604080516020601f89018190048102820181019092528781529250879150869081908401838280828437600092019190915250610cb192505050565b8015610690576000805461ff00191690555b5050505050565b6000818152606760205260408120546001600160a01b0316806102d35760405162461bcd60e51b815260206004820152602960248201527f4552433732313a206f776e657220717565727920666f72206e6f6e657869737460448201526832b73a103a37b5b2b760b91b60648201526084016103e0565b60006001600160a01b0382166107795760405162461bcd60e51b815260206004820152602a60248201527f4552433732313a2062616c616e636520717565727920666f7220746865207a65604482015269726f206164647265737360b01b60648201526084016103e0565b506001600160a01b031660009081526068602052604090205490565b6060606680546102e8906116db565b6107af338383610ce2565b5050565b6107bd3383610a1e565b6107d95760405162461bcd60e51b81526004016103e0906115d0565b6107e584848484610db1565b50505050565b80516107fe906098906020840190611059565b507f4737457377f528cc8afd815f73ecb8b05df80d047dbffc41c17750a4033592bc609860405161082f91906114d8565b60405180910390a150565b6000818152606760205260409020546060906001600160a01b03166108b95760405162461bcd60e51b815260206004820152602f60248201527f4552433732314d657461646174613a2055524920717565727920666f72206e6f60448201526e3732bc34b9ba32b73a103a37b5b2b760891b60648201526084016103e0565b60006108d060408051602081019091526000815290565b905060008151116108f0576040518060200160405280600081525061091b565b806108fa84610de4565b60405160200161090b929190611459565b6040516020818303038152906040525b9392505050565b6098805461092f906116db565b80601f016020809104026020016040519081016040528092919081815260200182805461095b906116db565b80156109a85780601f1061097d576101008083540402835291602001916109a8565b820191906000526020600020905b81548152906001019060200180831161098b57829003601f168201915b505050505081565b600081815260696020526040902080546001600160a01b0319166001600160a01b03841690811790915581906109e582610697565b6001600160a01b03167f8c5be1e5ebec7d5bd14f71427d1e84f3dd0314c0f7b2291e5b200ac8c7c3b92560405160405180910390a45050565b6000818152606760205260408120546001600160a01b0316610a975760405162461bcd60e51b815260206004820152602c60248201527f4552433732313a206f70657261746f7220717565727920666f72206e6f6e657860448201526b34b9ba32b73a103a37b5b2b760a11b60648201526084016103e0565b6000610aa283610697565b9050806001600160a01b0316846001600160a01b03161480610add5750836001600160a01b0316610ad28461036b565b6001600160a01b0316145b80610b0d57506001600160a01b038082166000908152606a602090815260408083209388168352929052205460ff165b949350505050565b826001600160a01b0316610b2882610697565b6001600160a01b031614610b8c5760405162461bcd60e51b815260206004820152602560248201527f4552433732313a207472616e736665722066726f6d20696e636f72726563742060448201526437bbb732b960d91b60648201526084016103e0565b6001600160a01b038216610bee5760405162461bcd60e51b8152602060048201526024808201527f4552433732313a207472616e7366657220746f20746865207a65726f206164646044820152637265737360e01b60648201526084016103e0565b610bf96000826109b0565b6001600160a01b0383166000908152606860205260408120805460019290610c22908490611698565b90915550506001600160a01b0382166000908152606860205260408120805460019290610c5090849061166c565b909155505060008181526067602052604080822080546001600160a01b0319166001600160a01b0386811691821790925591518493918716917fddf252ad1be2c89b69c2b068fc378daa952ba7f163c4a11628f55a4df523b3ef91a4505050565b600054610100900460ff16610cd85760405162461bcd60e51b81526004016103e090611621565b6107af8282610efe565b816001600160a01b0316836001600160a01b03161415610d445760405162461bcd60e51b815260206004820152601960248201527f4552433732313a20617070726f766520746f2063616c6c65720000000000000060448201526064016103e0565b6001600160a01b038381166000818152606a6020908152604080832094871680845294825291829020805460ff191686151590811790915591519182527f17307eab39ab6107e8899845ad3d59bd9653f200f220920489ca2b5937696c31910160405180910390a3505050565b610dbc848484610b15565b610dc884848484610f4c565b6107e55760405162461bcd60e51b81526004016103e09061157e565b606081610e085750506040805180820190915260018152600360fc1b602082015290565b8160005b8115610e325780610e1c81611716565b9150610e2b9050600a83611684565b9150610e0c565b60008167ffffffffffffffff811115610e5b57634e487b7160e01b600052604160045260246000fd5b6040519080825280601f01601f191660200182016040528015610e85576020820181803683370190505b5090505b8415610b0d57610e9a600183611698565b9150610ea7600a86611731565b610eb290603061166c565b60f81b818381518110610ed557634e487b7160e01b600052603260045260246000fd5b60200101906001600160f81b031916908160001a905350610ef7600a86611684565b9450610e89565b600054610100900460ff16610f255760405162461bcd60e51b81526004016103e090611621565b8151610f38906065906020850190611059565b508051610516906066906020840190611059565b60006001600160a01b0384163b1561104e57604051630a85bd0160e11b81526001600160a01b0385169063150b7a0290610f90903390899088908890600401611488565b602060405180830381600087803b158015610faa57600080fd5b505af1925050508015610fda575060408051601f3d908101601f19168201909252610fd79181019061134a565b60015b611034573d808015611008576040519150601f19603f3d011682016040523d82523d6000602084013e61100d565b606091505b50805161102c5760405162461bcd60e51b81526004016103e09061157e565b805181602001fd5b6001600160e01b031916630a85bd0160e11b149050610b0d565b506001949350505050565b828054611065906116db565b90600052602060002090601f01602090048101928261108757600085556110cd565b82601f106110a057805160ff19168380011785556110cd565b828001600101855582156110cd579182015b828111156110cd5782518255916020019190600101906110b2565b506110d99291506110dd565b5090565b5b808211156110d957600081556001016110de565b600067ffffffffffffffff8084111561110d5761110d611771565b604051601f8501601f19908116603f0116810190828211818310171561113557611135611771565b8160405280935085815286868601111561114e57600080fd5b858560208301376000602087830101525050509392505050565b80356001600160a01b038116811461117f57600080fd5b919050565b60008083601f840112611195578182fd5b50813567ffffffffffffffff8111156111ac578182fd5b6020830191508360208285010111156111c457600080fd5b9250929050565b6000602082840312156111dc578081fd5b61091b82611168565b600080604083850312156111f7578081fd5b61120083611168565b915061120e60208401611168565b90509250929050565b60008060006060848603121561122b578081fd5b61123484611168565b925061124260208501611168565b9150604084013590509250925092565b60008060008060808587031215611267578081fd5b61127085611168565b935061127e60208601611168565b925060408501359150606085013567ffffffffffffffff8111156112a0578182fd5b8501601f810187136112b0578182fd5b6112bf878235602084016110f2565b91505092959194509250565b600080604083850312156112dd578182fd5b6112e683611168565b9150602083013580151581146112fa578182fd5b809150509250929050565b60008060408385031215611317578182fd5b61132083611168565b946020939093013593505050565b60006020828403121561133f578081fd5b813561091b81611787565b60006020828403121561135b578081fd5b815161091b81611787565b6000806000806040858703121561137b578384fd5b843567ffffffffffffffff80821115611392578586fd5b61139e88838901611184565b909650945060208701359150808211156113b6578384fd5b506113c387828801611184565b95989497509550505050565b6000602082840312156113e0578081fd5b813567ffffffffffffffff8111156113f6578182fd5b8201601f81018413611406578182fd5b610b0d848235602084016110f2565b600060208284031215611426578081fd5b5035919050565b600081518084526114458160208601602086016116af565b601f01601f19169290920160200192915050565b6000835161146b8184602088016116af565b83519083019061147f8183602088016116af565b01949350505050565b6001600160a01b03858116825284166020820152604081018390526080606082018190526000906114bb9083018461142d565b9695505050505050565b60208152600061091b602083018461142d565b6000602080835281845483600182811c9150808316806114f957607f831692505b85831081141561151757634e487b7160e01b87526022600452602487fd5b87860183815260200181801561153457600181146115455761156f565b60ff1986168252878201965061156f565b60008b815260209020895b8681101561156957815484820152908501908901611550565b83019750505b50949998505050505050505050565b60208082526032908201527f4552433732313a207472616e7366657220746f206e6f6e20455243373231526560408201527131b2b4bb32b91034b6b83632b6b2b73a32b960711b606082015260800190565b60208082526031908201527f4552433732313a207472616e736665722063616c6c6572206973206e6f74206f6040820152701ddb995c881b9bdc88185c1c1c9bdd9959607a1b606082015260800190565b6020808252602b908201527f496e697469616c697a61626c653a20636f6e7472616374206973206e6f74206960408201526a6e697469616c697a696e6760a81b606082015260800190565b6000821982111561167f5761167f611745565b500190565b6000826116935761169361175b565b500490565b6000828210156116aa576116aa611745565b500390565b60005b838110156116ca5781810151838201526020016116b2565b838111156107e55750506000910152565b600181811c908216806116ef57607f821691505b6020821081141561171057634e487b7160e01b600052602260045260246000fd5b50919050565b600060001982141561172a5761172a611745565b5060010190565b6000826117405761174061175b565b500690565b634e487b7160e01b600052601160045260246000fd5b634e487b7160e01b600052601260045260246000fd5b634e487b7160e01b600052604160045260246000fd5b6001600160e01b03198116811461179d57600080fd5b5056fea264697066735822122025e54c1803318d560b51c4ad5d1658161e2c79ea7a4e377ce322cc893e985fec64736f6c63430008040033",
  "linkReferences": {},
  "deployedLinkReferences": {}
}