{
  "_format": "hh-sol-artifact-1",
  "contractName": "MyERC20v3",
  "sourceName": "contracts/sample_upgradeable_ERC20/MyERC20_v3.sol",
  "abi": [
    {
      "anonymous": false,
      "inputs": [
        {
          "indexed": true,
          "internalType": "address",
          "name": "owner",
          "type": "address"
        },
        {
          "indexed": true,
          "internalType": "address",
          "name": "spender",
          "type": "address"
        },
        {
          "indexed": false,
          "internalType": "uint256",
          "name": "value",
          "type": "uint256"
        }
      ],
      "name": "Approval",
      "type": "event"
    },
    {
      "anonymous": false,
      "inputs": [
        {
          "indexed": false,
          "internalType": "string",
          "name": "gender",
          "type": "string"
        }
      ],
      "name": "GenderChanged",
      "type": "event"
    },
    {
      "anonymous": false,
      "inputs": [
        {
          "indexed": false,
          "internalType": "string",
          "name": "name",
          "type": "string"
        }
      ],
      "name": "NameChanged",
      "type": "event"
    },
    {
      "anonymous": false,
      "inputs": [
        {
          "indexed": true,
          "internalType": "address",
          "name": "from",
          "type": "address"
        },
        {
          "indexed": true,
          "internalType": "address",
          "name": "to",
          "type": "address"
        },
        {
          "indexed": false,
          "internalType": "uint256",
          "name": "value",
          "type": "uint256"
        }
      ],
      "name": "Transfer",
      "type": "event"
    },
    {
      "inputs": [
        {
          "internalType": "address",
          "name": "owner",
          "type": "address"
        },
        {
          "internalType": "address",
          "name": "spender",
          "type": "address"
        }
      ],
      "name": "allowance",
      "outputs": [
        {
          "internalType": "uint256",
          "name": "",
          "type": "uint256"
        }
      ],
      "stateMutability": "view",
      "type": "function"
    },
    {
      "inputs": [
        {
          "internalType": "address",
          "name": "spender",
          "type": "address"
        },
        {
          "internalType": "uint256",
          "name": "amount",
          "type": "uint256"
        }
      ],
      "name": "approve",
      "outputs": [
        {
          "internalType": "bool",
          "name": "",
          "type": "bool"
        }
      ],
      "stateMutability": "nonpayable",
      "type": "function"
    },
    {
      "inputs": [
        {
          "internalType": "address",
          "name": "account",
          "type": "address"
        }
      ],
      "name": "balanceOf",
      "outputs": [
        {
          "internalType": "uint256",
          "name": "",
          "type": "uint256"
        }
      ],
      "stateMutability": "view",
      "type": "function"
    },
    {
      "inputs": [],
      "name": "decimals",
      "outputs": [
        {
          "internalType": "uint8",
          "name": "",
          "type": "uint8"
        }
      ],
      "stateMutability": "view",
      "type": "function"
    },
    {
      "inputs": [
        {
          "internalType": "address",
          "name": "spender",
          "type": "address"
        },
        {
          "internalType": "uint256",
          "name": "subtractedValue",
          "type": "uint256"
        }
      ],
      "name": "decreaseAllowance",
      "outputs": [
        {
          "internalType": "bool",
          "name": "",
          "type": "bool"
        }
      ],
      "stateMutability": "nonpayable",
      "type": "function"
    },
    {
      "inputs": [
        {
          "internalType": "address",
          "name": "spender",
          "type": "address"
        },
        {
          "internalType": "uint256",
          "name": "addedValue",
          "type": "uint256"
        }
      ],
      "name": "increaseAllowance",
      "outputs": [
        {
          "internalType": "bool",
          "name": "",
          "type": "bool"
        }
      ],
      "stateMutability": "nonpayable",
      "type": "function"
    },
    {
      "inputs": [
        {
          "internalType": "string",
          "name": "name",
          "type": "string"
        },
        {
          "internalType": "string",
          "name": "symbol",
          "type": "string"
        }
      ],
      "name": "initialize",
      "outputs": [],
      "stateMutability": "nonpayable",
      "type": "function"
    },
    {
      "inputs": [],
      "name": "name",
      "outputs": [
        {
          "internalType": "string",
          "name": "",
          "type": "string"
        }
      ],
      "stateMutability": "view",
      "type": "function"
    },
    {
      "inputs": [
        {
          "internalType": "string",
          "name": "_testGender",
          "type": "string"
        }
      ],
      "name": "setGender",
      "outputs": [],
      "stateMutability": "nonpayable",
      "type": "function"
    },
    {
      "inputs": [
        {
          "internalType": "string",
          "name": "_testName",
          "type": "string"
        }
      ],
      "name": "setName",
      "outputs": [],
      "stateMutability": "nonpayable",
      "type": "function"
    },
    {
      "inputs": [],
      "name": "symbol",
      "outputs": [
        {
          "internalType": "string",
          "name": "",
          "type": "string"
        }
      ],
      "stateMutability": "view",
      "type": "function"
    },
    {
      "inputs": [],
      "name": "testGender",
      "outputs": [
        {
          "internalType": "string",
          "name": "",
          "type": "string"
        }
      ],
      "stateMutability": "view",
      "type": "function"
    },
    {
      "inputs": [],
      "name": "testName",
      "outputs": [
        {
          "internalType": "string",
          "name": "",
          "type": "string"
        }
      ],
      "stateMutability": "view",
      "type": "function"
    },
    {
      "inputs": [],
      "name": "totalSupply",
      "outputs": [
        {
          "internalType": "uint256",
          "name": "",
          "type": "uint256"
        }
      ],
      "stateMutability": "view",
      "type": "function"
    },
    {
      "inputs": [
        {
          "internalType": "address",
          "name": "to",
          "type": "address"
        },
        {
          "internalType": "uint256",
          "name": "amount",
          "type": "uint256"
        }
      ],
      "name": "transfer",
      "outputs": [
        {
          "internalType": "bool",
          "name": "",
          "type": "bool"
        }
      ],
      "stateMutability": "nonpayable",
      "type": "function"
    },
    {
      "inputs": [
        {
          "internalType": "address",
          "name": "from",
          "type": "address"
        },
        {
          "internalType": "address",
          "name": "to",
          "type": "address"
        },
        {
          "internalType": "uint256",
          "name": "amount",
          "type": "uint256"
        }
      ],
      "name": "transferFrom",
      "outputs": [
        {
          "internalType": "bool",
          "name": "",
          "type": "bool"
        }
      ],
      "stateMutability": "nonpayable",
      "type": "function"
    }
  ],
  "bytecode": "0x608060405234801561001057600080fd5b50610f44806100206000396000f3fe608060405234801561001057600080fd5b50600436106101005760003560e01c806395d89b4111610097578063c47f002711610066578063c47f002714610201578063cc8668de14610214578063dd62ed3e1461021c578063f212e2651461025557600080fd5b806395d89b41146101cb578063a457c2d7146101d3578063a9059cbb146101e6578063bd157bf5146101f957600080fd5b8063313ce567116100d3578063313ce5671461016b578063395093511461017a5780634cd88b761461018d57806370a08231146101a257600080fd5b806306fdde0314610105578063095ea7b31461012357806318160ddd1461014657806323b872dd14610158575b600080fd5b61010d610268565b60405161011a9190610d55565b60405180910390f35b610136610131366004610c19565b6102fa565b604051901515815260200161011a565b6035545b60405190815260200161011a565b610136610166366004610bde565b610312565b6040516012815260200161011a565b610136610188366004610c19565b610336565b6101a061019b366004610c42565b610375565b005b61014a6101b0366004610b8b565b6001600160a01b031660009081526033602052604090205490565b61010d6104aa565b6101366101e1366004610c19565b6104b9565b6101366101f4366004610c19565b61054b565b61010d610559565b6101a061020f366004610cab565b6105e7565b61010d610636565b61014a61022a366004610bac565b6001600160a01b03918216600090815260346020908152604080832093909416825291909152205490565b6101a0610263366004610cab565b610643565b60606036805461027790610ebd565b80601f01602080910402602001604051908101604052809291908181526020018280546102a390610ebd565b80156102f05780601f106102c5576101008083540402835291602001916102f0565b820191906000526020600020905b8154815290600101906020018083116102d357829003601f168201915b5050505050905090565b600033610308818585610687565b5060019392505050565b6000336103208582856107ab565b61032b85858561083d565b506001949350505050565b3360008181526034602090815260408083206001600160a01b03871684529091528120549091906103089082908690610370908790610e99565b610687565b600054610100900460ff166103905760005460ff1615610394565b303b155b6103fc5760405162461bcd60e51b815260206004820152602e60248201527f496e697469616c697a61626c653a20636f6e747261637420697320616c72656160448201526d191e481a5b9a5d1a585b1a5e995960921b60648201526084015b60405180910390fd5b600054610100900460ff1615801561041e576000805461ffff19166101011790555b61049185858080601f01602080910402602001604051908101604052809392919081815260200183838082843760009201919091525050604080516020601f89018190048102820181019092528781529250879150869081908401838280828437600092019190915250610a0b92505050565b80156104a3576000805461ff00191690555b5050505050565b60606037805461027790610ebd565b3360008181526034602090815260408083206001600160a01b03871684529091528120549091908381101561053e5760405162461bcd60e51b815260206004820152602560248201527f45524332303a2064656372656173656420616c6c6f77616e63652062656c6f77604482015264207a65726f60d81b60648201526084016103f3565b61032b8286868403610687565b60003361030881858561083d565b6066805461056690610ebd565b80601f016020809104026020016040519081016040528092919081815260200182805461059290610ebd565b80156105df5780601f106105b4576101008083540402835291602001916105df565b820191906000526020600020905b8154815290600101906020018083116105c257829003601f168201915b505050505081565b80516105fa906065906020840190610a8f565b507f4737457377f528cc8afd815f73ecb8b05df80d047dbffc41c17750a4033592bc606560405161062b9190610da8565b60405180910390a150565b6065805461056690610ebd565b8051610656906066906020840190610a8f565b507f240556481625ea211c883e7db606357ad7b580ac4d83de4d626a31ade7c2c6fe606660405161062b9190610da8565b6001600160a01b0383166106e95760405162461bcd60e51b8152602060048201526024808201527f45524332303a20617070726f76652066726f6d20746865207a65726f206164646044820152637265737360e01b60648201526084016103f3565b6001600160a01b03821661074a5760405162461bcd60e51b815260206004820152602260248201527f45524332303a20617070726f766520746f20746865207a65726f206164647265604482015261737360f01b60648201526084016103f3565b6001600160a01b0383811660008181526034602090815260408083209487168084529482529182902085905590518481527f8c5be1e5ebec7d5bd14f71427d1e84f3dd0314c0f7b2291e5b200ac8c7c3b925910160405180910390a3505050565b6001600160a01b038381166000908152603460209081526040808320938616835292905220546000198114610837578181101561082a5760405162461bcd60e51b815260206004820152601d60248201527f45524332303a20696e73756666696369656e7420616c6c6f77616e636500000060448201526064016103f3565b6108378484848403610687565b50505050565b6001600160a01b0383166108a15760405162461bcd60e51b815260206004820152602560248201527f45524332303a207472616e736665722066726f6d20746865207a65726f206164604482015264647265737360d81b60648201526084016103f3565b6001600160a01b0382166109035760405162461bcd60e51b815260206004820152602360248201527f45524332303a207472616e7366657220746f20746865207a65726f206164647260448201526265737360e81b60648201526084016103f3565b6001600160a01b0383166000908152603360205260409020548181101561097b5760405162461bcd60e51b815260206004820152602660248201527f45524332303a207472616e7366657220616d6f756e7420657863656564732062604482015265616c616e636560d01b60648201526084016103f3565b6001600160a01b038085166000908152603360205260408082208585039055918516815290812080548492906109b2908490610e99565b92505081905550826001600160a01b0316846001600160a01b03167fddf252ad1be2c89b69c2b068fc378daa952ba7f163c4a11628f55a4df523b3ef846040516109fe91815260200190565b60405180910390a3610837565b600054610100900460ff16610a325760405162461bcd60e51b81526004016103f390610e4e565b610a3c8282610a45565b5050565b505050565b600054610100900460ff16610a6c5760405162461bcd60e51b81526004016103f390610e4e565b8151610a7f906036906020850190610a8f565b508051610a409060379060208401905b828054610a9b90610ebd565b90600052602060002090601f016020900481019282610abd5760008555610b03565b82601f10610ad657805160ff1916838001178555610b03565b82800160010185558215610b03579182015b82811115610b03578251825591602001919060010190610ae8565b50610b0f929150610b13565b5090565b5b80821115610b0f5760008155600101610b14565b80356001600160a01b0381168114610b3f57600080fd5b919050565b60008083601f840112610b55578081fd5b50813567ffffffffffffffff811115610b6c578182fd5b602083019150836020828501011115610b8457600080fd5b9250929050565b600060208284031215610b9c578081fd5b610ba582610b28565b9392505050565b60008060408385031215610bbe578081fd5b610bc783610b28565b9150610bd560208401610b28565b90509250929050565b600080600060608486031215610bf2578081fd5b610bfb84610b28565b9250610c0960208501610b28565b9150604084013590509250925092565b60008060408385031215610c2b578182fd5b610c3483610b28565b946020939093013593505050565b60008060008060408587031215610c57578081fd5b843567ffffffffffffffff80821115610c6e578283fd5b610c7a88838901610b44565b90965094506020870135915080821115610c92578283fd5b50610c9f87828801610b44565b95989497509550505050565b600060208284031215610cbc578081fd5b813567ffffffffffffffff80821115610cd3578283fd5b818401915084601f830112610ce6578283fd5b813581811115610cf857610cf8610ef8565b604051601f8201601f19908116603f01168101908382118183101715610d2057610d20610ef8565b81604052828152876020848701011115610d38578586fd5b826020860160208301379182016020019490945295945050505050565b6000602080835283518082850152825b81811015610d8157858101830151858201604001528201610d65565b81811115610d925783604083870101525b50601f01601f1916929092016040019392505050565b6000602080835281845483600182811c915080831680610dc957607f831692505b858310811415610de757634e487b7160e01b87526022600452602487fd5b878601838152602001818015610e045760018114610e1557610e3f565b60ff19861682528782019650610e3f565b60008b815260209020895b86811015610e3957815484820152908501908901610e20565b83019750505b50949998505050505050505050565b6020808252602b908201527f496e697469616c697a61626c653a20636f6e7472616374206973206e6f74206960408201526a6e697469616c697a696e6760a81b606082015260800190565b60008219821115610eb857634e487b7160e01b81526011600452602481fd5b500190565b600181811c90821680610ed157607f821691505b60208210811415610ef257634e487b7160e01b600052602260045260246000fd5b50919050565b634e487b7160e01b600052604160045260246000fdfea2646970667358221220b40a2b86e5ef1794463cd68f65e3a0121ae924754b8c4314aa5299b63f9fdd6e64736f6c63430008040033",
  "linkReferences": {},
  "deployedLinkReferences": {}
}