{
  "_format": "hh-sol-artifact-1",
  "contractName": "MyERC721v3",
  "sourceName": "contracts/sample_upgradeable_ERC721/MyERC721_v3.sol",
  "abi": [
    {
      "anonymous": false,
      "inputs": [
        {
          "indexed": true,
          "internalType": "address",
          "name": "owner",
          "type": "address"
        },
        {
          "indexed": true,
          "internalType": "address",
          "name": "approved",
          "type": "address"
        },
        {
          "indexed": true,
          "internalType": "uint256",
          "name": "tokenId",
          "type": "uint256"
        }
      ],
      "name": "Approval",
      "type": "event"
    },
    {
      "anonymous": false,
      "inputs": [
        {
          "indexed": true,
          "internalType": "address",
          "name": "owner",
          "type": "address"
        },
        {
          "indexed": true,
          "internalType": "address",
          "name": "operator",
          "type": "address"
        },
        {
          "indexed": false,
          "internalType": "bool",
          "name": "approved",
          "type": "bool"
        }
      ],
      "name": "ApprovalForAll",
      "type": "event"
    },
    {
      "anonymous": false,
      "inputs": [
        {
          "indexed": false,
          "internalType": "string",
          "name": "gender",
          "type": "string"
        }
      ],
      "name": "GenderChanged",
      "type": "event"
    },
    {
      "anonymous": false,
      "inputs": [
        {
          "indexed": false,
          "internalType": "string",
          "name": "name",
          "type": "string"
        }
      ],
      "name": "NameChanged",
      "type": "event"
    },
    {
      "anonymous": false,
      "inputs": [
        {
          "indexed": true,
          "internalType": "address",
          "name": "from",
          "type": "address"
        },
        {
          "indexed": true,
          "internalType": "address",
          "name": "to",
          "type": "address"
        },
        {
          "indexed": true,
          "internalType": "uint256",
          "name": "tokenId",
          "type": "uint256"
        }
      ],
      "name": "Transfer",
      "type": "event"
    },
    {
      "inputs": [
        {
          "internalType": "address",
          "name": "to",
          "type": "address"
        },
        {
          "internalType": "uint256",
          "name": "tokenId",
          "type": "uint256"
        }
      ],
      "name": "approve",
      "outputs": [],
      "stateMutability": "nonpayable",
      "type": "function"
    },
    {
      "inputs": [
        {
          "internalType": "address",
          "name": "owner",
          "type": "address"
        }
      ],
      "name": "balanceOf",
      "outputs": [
        {
          "internalType": "uint256",
          "name": "",
          "type": "uint256"
        }
      ],
      "stateMutability": "view",
      "type": "function"
    },
    {
      "inputs": [
        {
          "internalType": "uint256",
          "name": "tokenId",
          "type": "uint256"
        }
      ],
      "name": "getApproved",
      "outputs": [
        {
          "internalType": "address",
          "name": "",
          "type": "address"
        }
      ],
      "stateMutability": "view",
      "type": "function"
    },
    {
      "inputs": [
        {
          "internalType": "string",
          "name": "name",
          "type": "string"
        },
        {
          "internalType": "string",
          "name": "symbol",
          "type": "string"
        }
      ],
      "name": "initialize",
      "outputs": [],
      "stateMutability": "nonpayable",
      "type": "function"
    },
    {
      "inputs": [
        {
          "internalType": "address",
          "name": "owner",
          "type": "address"
        },
        {
          "internalType": "address",
          "name": "operator",
          "type": "address"
        }
      ],
      "name": "isApprovedForAll",
      "outputs": [
        {
          "internalType": "bool",
          "name": "",
          "type": "bool"
        }
      ],
      "stateMutability": "view",
      "type": "function"
    },
    {
      "inputs": [],
      "name": "name",
      "outputs": [
        {
          "internalType": "string",
          "name": "",
          "type": "string"
        }
      ],
      "stateMutability": "view",
      "type": "function"
    },
    {
      "inputs": [
        {
          "internalType": "uint256",
          "name": "tokenId",
          "type": "uint256"
        }
      ],
      "name": "ownerOf",
      "outputs": [
        {
          "internalType": "address",
          "name": "",
          "type": "address"
        }
      ],
      "stateMutability": "view",
      "type": "function"
    },
    {
      "inputs": [
        {
          "internalType": "address",
          "name": "from",
          "type": "address"
        },
        {
          "internalType": "address",
          "name": "to",
          "type": "address"
        },
        {
          "internalType": "uint256",
          "name": "tokenId",
          "type": "uint256"
        }
      ],
      "name": "safeTransferFrom",
      "outputs": [],
      "stateMutability": "nonpayable",
      "type": "function"
    },
    {
      "inputs": [
        {
          "internalType": "address",
          "name": "from",
          "type": "address"
        },
        {
          "internalType": "address",
          "name": "to",
          "type": "address"
        },
        {
          "internalType": "uint256",
          "name": "tokenId",
          "type": "uint256"
        },
        {
          "internalType": "bytes",
          "name": "_data",
          "type": "bytes"
        }
      ],
      "name": "safeTransferFrom",
      "outputs": [],
      "stateMutability": "nonpayable",
      "type": "function"
    },
    {
      "inputs": [
        {
          "internalType": "address",
          "name": "operator",
          "type": "address"
        },
        {
          "internalType": "bool",
          "name": "approved",
          "type": "bool"
        }
      ],
      "name": "setApprovalForAll",
      "outputs": [],
      "stateMutability": "nonpayable",
      "type": "function"
    },
    {
      "inputs": [
        {
          "internalType": "string",
          "name": "_testGender",
          "type": "string"
        }
      ],
      "name": "setGender",
      "outputs": [],
      "stateMutability": "nonpayable",
      "type": "function"
    },
    {
      "inputs": [
        {
          "internalType": "string",
          "name": "_testName",
          "type": "string"
        }
      ],
      "name": "setName",
      "outputs": [],
      "stateMutability": "nonpayable",
      "type": "function"
    },
    {
      "inputs": [
        {
          "internalType": "bytes4",
          "name": "interfaceId",
          "type": "bytes4"
        }
      ],
      "name": "supportsInterface",
      "outputs": [
        {
          "internalType": "bool",
          "name": "",
          "type": "bool"
        }
      ],
      "stateMutability": "view",
      "type": "function"
    },
    {
      "inputs": [],
      "name": "symbol",
      "outputs": [
        {
          "internalType": "string",
          "name": "",
          "type": "string"
        }
      ],
      "stateMutability": "view",
      "type": "function"
    },
    {
      "inputs": [],
      "name": "testGender",
      "outputs": [
        {
          "internalType": "string",
          "name": "",
          "type": "string"
        }
      ],
      "stateMutability": "view",
      "type": "function"
    },
    {
      "inputs": [],
      "name": "testName",
      "outputs": [
        {
          "internalType": "string",
          "name": "",
          "type": "string"
        }
      ],
      "stateMutability": "view",
      "type": "function"
    },
    {
      "inputs": [
        {
          "internalType": "uint256",
          "name": "tokenId",
          "type": "uint256"
        }
      ],
      "name": "tokenURI",
      "outputs": [
        {
          "internalType": "string",
          "name": "",
          "type": "string"
        }
      ],
      "stateMutability": "view",
      "type": "function"
    },
    {
      "inputs": [
        {
          "internalType": "address",
          "name": "from",
          "type": "address"
        },
        {
          "internalType": "address",
          "name": "to",
          "type": "address"
        },
        {
          "internalType": "uint256",
          "name": "tokenId",
          "type": "uint256"
        }
      ],
      "name": "transferFrom",
      "outputs": [],
      "stateMutability": "nonpayable",
      "type": "function"
    }
  ],
  "bytecode": "0x608060405234801561001057600080fd5b50611858806100206000396000f3fe608060405234801561001057600080fd5b50600436106101165760003560e01c806395d89b41116100a2578063c47f002711610071578063c47f00271461023b578063c87b56dd1461024e578063cc8668de14610261578063e985e9c514610269578063f212e265146102a557600080fd5b806395d89b4114610205578063a22cb4651461020d578063b88d4fde14610220578063bd157bf51461023357600080fd5b806323b872dd116100e957806323b872dd1461019857806342842e0e146101ab5780634cd88b76146101be5780636352211e146101d157806370a08231146101e457600080fd5b806301ffc9a71461011b57806306fdde0314610143578063081812fc14610158578063095ea7b314610183575b600080fd5b61012e6101293660046113b0565b6102b8565b60405190151581526020015b60405180910390f35b61014b61030a565b60405161013a9190611547565b61016b610166366004611497565b61039c565b6040516001600160a01b03909116815260200161013a565b610196610191366004611387565b610436565b005b6101966101a6366004611299565b61054c565b6101966101b9366004611299565b61057d565b6101966101cc3660046113e8565b610598565b61016b6101df366004611497565b6106c8565b6101f76101f236600461124d565b61073f565b60405190815260200161013a565b61014b6107c6565b61019661021b36600461134d565b6107d5565b61019661022e3660046112d4565b6107e4565b61014b61081c565b610196610249366004611451565b6108aa565b61014b61025c366004611497565b6108f9565b61014b6109e1565b61012e610277366004611267565b6001600160a01b039182166000908152606a6020908152604080832093909416825291909152205460ff1690565b6101966102b3366004611451565b6109ee565b60006001600160e01b031982166380ac58cd60e01b14806102e957506001600160e01b03198216635b5e139f60e01b145b8061030457506301ffc9a760e01b6001600160e01b03198316145b92915050565b6060606580546103199061175d565b80601f01602080910402602001604051908101604052809291908181526020018280546103459061175d565b80156103925780601f1061036757610100808354040283529160200191610392565b820191906000526020600020905b81548152906001019060200180831161037557829003601f168201915b5050505050905090565b6000818152606760205260408120546001600160a01b031661041a5760405162461bcd60e51b815260206004820152602c60248201527f4552433732313a20617070726f76656420717565727920666f72206e6f6e657860448201526b34b9ba32b73a103a37b5b2b760a11b60648201526084015b60405180910390fd5b506000908152606960205260409020546001600160a01b031690565b6000610441826106c8565b9050806001600160a01b0316836001600160a01b031614156104af5760405162461bcd60e51b815260206004820152602160248201527f4552433732313a20617070726f76616c20746f2063757272656e74206f776e656044820152603960f91b6064820152608401610411565b336001600160a01b03821614806104cb57506104cb8133610277565b61053d5760405162461bcd60e51b815260206004820152603860248201527f4552433732313a20617070726f76652063616c6c6572206973206e6f74206f7760448201527f6e6572206e6f7220617070726f76656420666f7220616c6c00000000000000006064820152608401610411565b6105478383610a32565b505050565b6105563382610aa0565b6105725760405162461bcd60e51b815260040161041190611652565b610547838383610b97565b610547838383604051806020016040528060008152506107e4565b600054610100900460ff166105b35760005460ff16156105b7565b303b155b61061a5760405162461bcd60e51b815260206004820152602e60248201527f496e697469616c697a61626c653a20636f6e747261637420697320616c72656160448201526d191e481a5b9a5d1a585b1a5e995960921b6064820152608401610411565b600054610100900460ff1615801561063c576000805461ffff19166101011790555b6106af85858080601f01602080910402602001604051908101604052809392919081815260200183838082843760009201919091525050604080516020601f89018190048102820181019092528781529250879150869081908401838280828437600092019190915250610d3392505050565b80156106c1576000805461ff00191690555b5050505050565b6000818152606760205260408120546001600160a01b0316806103045760405162461bcd60e51b815260206004820152602960248201527f4552433732313a206f776e657220717565727920666f72206e6f6e657869737460448201526832b73a103a37b5b2b760b91b6064820152608401610411565b60006001600160a01b0382166107aa5760405162461bcd60e51b815260206004820152602a60248201527f4552433732313a2062616c616e636520717565727920666f7220746865207a65604482015269726f206164647265737360b01b6064820152608401610411565b506001600160a01b031660009081526068602052604090205490565b6060606680546103199061175d565b6107e0338383610d64565b5050565b6107ee3383610aa0565b61080a5760405162461bcd60e51b815260040161041190611652565b61081684848484610e33565b50505050565b609980546108299061175d565b80601f01602080910402602001604051908101604052809291908181526020018280546108559061175d565b80156108a25780601f10610877576101008083540402835291602001916108a2565b820191906000526020600020905b81548152906001019060200180831161088557829003601f168201915b505050505081565b80516108bd9060989060208401906110db565b507f4737457377f528cc8afd815f73ecb8b05df80d047dbffc41c17750a4033592bc60986040516108ee919061155a565b60405180910390a150565b6000818152606760205260409020546060906001600160a01b03166109785760405162461bcd60e51b815260206004820152602f60248201527f4552433732314d657461646174613a2055524920717565727920666f72206e6f60448201526e3732bc34b9ba32b73a103a37b5b2b760891b6064820152608401610411565b600061098f60408051602081019091526000815290565b905060008151116109af57604051806020016040528060008152506109da565b806109b984610e66565b6040516020016109ca9291906114db565b6040516020818303038152906040525b9392505050565b609880546108299061175d565b8051610a019060999060208401906110db565b507f240556481625ea211c883e7db606357ad7b580ac4d83de4d626a31ade7c2c6fe60996040516108ee919061155a565b600081815260696020526040902080546001600160a01b0319166001600160a01b0384169081179091558190610a67826106c8565b6001600160a01b03167f8c5be1e5ebec7d5bd14f71427d1e84f3dd0314c0f7b2291e5b200ac8c7c3b92560405160405180910390a45050565b6000818152606760205260408120546001600160a01b0316610b195760405162461bcd60e51b815260206004820152602c60248201527f4552433732313a206f70657261746f7220717565727920666f72206e6f6e657860448201526b34b9ba32b73a103a37b5b2b760a11b6064820152608401610411565b6000610b24836106c8565b9050806001600160a01b0316846001600160a01b03161480610b5f5750836001600160a01b0316610b548461039c565b6001600160a01b0316145b80610b8f57506001600160a01b038082166000908152606a602090815260408083209388168352929052205460ff165b949350505050565b826001600160a01b0316610baa826106c8565b6001600160a01b031614610c0e5760405162461bcd60e51b815260206004820152602560248201527f4552433732313a207472616e736665722066726f6d20696e636f72726563742060448201526437bbb732b960d91b6064820152608401610411565b6001600160a01b038216610c705760405162461bcd60e51b8152602060048201526024808201527f4552433732313a207472616e7366657220746f20746865207a65726f206164646044820152637265737360e01b6064820152608401610411565b610c7b600082610a32565b6001600160a01b0383166000908152606860205260408120805460019290610ca490849061171a565b90915550506001600160a01b0382166000908152606860205260408120805460019290610cd29084906116ee565b909155505060008181526067602052604080822080546001600160a01b0319166001600160a01b0386811691821790925591518493918716917fddf252ad1be2c89b69c2b068fc378daa952ba7f163c4a11628f55a4df523b3ef91a4505050565b600054610100900460ff16610d5a5760405162461bcd60e51b8152600401610411906116a3565b6107e08282610f80565b816001600160a01b0316836001600160a01b03161415610dc65760405162461bcd60e51b815260206004820152601960248201527f4552433732313a20617070726f766520746f2063616c6c6572000000000000006044820152606401610411565b6001600160a01b038381166000818152606a6020908152604080832094871680845294825291829020805460ff191686151590811790915591519182527f17307eab39ab6107e8899845ad3d59bd9653f200f220920489ca2b5937696c31910160405180910390a3505050565b610e3e848484610b97565b610e4a84848484610fce565b6108165760405162461bcd60e51b815260040161041190611600565b606081610e8a5750506040805180820190915260018152600360fc1b602082015290565b8160005b8115610eb45780610e9e81611798565b9150610ead9050600a83611706565b9150610e8e565b60008167ffffffffffffffff811115610edd57634e487b7160e01b600052604160045260246000fd5b6040519080825280601f01601f191660200182016040528015610f07576020820181803683370190505b5090505b8415610b8f57610f1c60018361171a565b9150610f29600a866117b3565b610f349060306116ee565b60f81b818381518110610f5757634e487b7160e01b600052603260045260246000fd5b60200101906001600160f81b031916908160001a905350610f79600a86611706565b9450610f0b565b600054610100900460ff16610fa75760405162461bcd60e51b8152600401610411906116a3565b8151610fba9060659060208501906110db565b5080516105479060669060208401906110db565b60006001600160a01b0384163b156110d057604051630a85bd0160e11b81526001600160a01b0385169063150b7a029061101290339089908890889060040161150a565b602060405180830381600087803b15801561102c57600080fd5b505af192505050801561105c575060408051601f3d908101601f19168201909252611059918101906113cc565b60015b6110b6573d80801561108a576040519150601f19603f3d011682016040523d82523d6000602084013e61108f565b606091505b5080516110ae5760405162461bcd60e51b815260040161041190611600565b805181602001fd5b6001600160e01b031916630a85bd0160e11b149050610b8f565b506001949350505050565b8280546110e79061175d565b90600052602060002090601f016020900481019282611109576000855561114f565b82601f1061112257805160ff191683800117855561114f565b8280016001018555821561114f579182015b8281111561114f578251825591602001919060010190611134565b5061115b92915061115f565b5090565b5b8082111561115b5760008155600101611160565b600067ffffffffffffffff8084111561118f5761118f6117f3565b604051601f8501601f19908116603f011681019082821181831017156111b7576111b76117f3565b816040528093508581528686860111156111d057600080fd5b858560208301376000602087830101525050509392505050565b80356001600160a01b038116811461120157600080fd5b919050565b60008083601f840112611217578182fd5b50813567ffffffffffffffff81111561122e578182fd5b60208301915083602082850101111561124657600080fd5b9250929050565b60006020828403121561125e578081fd5b6109da826111ea565b60008060408385031215611279578081fd5b611282836111ea565b9150611290602084016111ea565b90509250929050565b6000806000606084860312156112ad578081fd5b6112b6846111ea565b92506112c4602085016111ea565b9150604084013590509250925092565b600080600080608085870312156112e9578081fd5b6112f2856111ea565b9350611300602086016111ea565b925060408501359150606085013567ffffffffffffffff811115611322578182fd5b8501601f81018713611332578182fd5b61134187823560208401611174565b91505092959194509250565b6000806040838503121561135f578182fd5b611368836111ea565b91506020830135801515811461137c578182fd5b809150509250929050565b60008060408385031215611399578182fd5b6113a2836111ea565b946020939093013593505050565b6000602082840312156113c1578081fd5b81356109da81611809565b6000602082840312156113dd578081fd5b81516109da81611809565b600080600080604085870312156113fd578384fd5b843567ffffffffffffffff80821115611414578586fd5b61142088838901611206565b90965094506020870135915080821115611438578384fd5b5061144587828801611206565b95989497509550505050565b600060208284031215611462578081fd5b813567ffffffffffffffff811115611478578182fd5b8201601f81018413611488578182fd5b610b8f84823560208401611174565b6000602082840312156114a8578081fd5b5035919050565b600081518084526114c7816020860160208601611731565b601f01601f19169290920160200192915050565b600083516114ed818460208801611731565b835190830190611501818360208801611731565b01949350505050565b6001600160a01b038581168252841660208201526040810183905260806060820181905260009061153d908301846114af565b9695505050505050565b6020815260006109da60208301846114af565b6000602080835281845483600182811c91508083168061157b57607f831692505b85831081141561159957634e487b7160e01b87526022600452602487fd5b8786018381526020018180156115b657600181146115c7576115f1565b60ff198616825287820196506115f1565b60008b815260209020895b868110156115eb578154848201529085019089016115d2565b83019750505b50949998505050505050505050565b60208082526032908201527f4552433732313a207472616e7366657220746f206e6f6e20455243373231526560408201527131b2b4bb32b91034b6b83632b6b2b73a32b960711b606082015260800190565b60208082526031908201527f4552433732313a207472616e736665722063616c6c6572206973206e6f74206f6040820152701ddb995c881b9bdc88185c1c1c9bdd9959607a1b606082015260800190565b6020808252602b908201527f496e697469616c697a61626c653a20636f6e7472616374206973206e6f74206960408201526a6e697469616c697a696e6760a81b606082015260800190565b60008219821115611701576117016117c7565b500190565b600082611715576117156117dd565b500490565b60008282101561172c5761172c6117c7565b500390565b60005b8381101561174c578181015183820152602001611734565b838111156108165750506000910152565b600181811c9082168061177157607f821691505b6020821081141561179257634e487b7160e01b600052602260045260246000fd5b50919050565b60006000198214156117ac576117ac6117c7565b5060010190565b6000826117c2576117c26117dd565b500690565b634e487b7160e01b600052601160045260246000fd5b634e487b7160e01b600052601260045260246000fd5b634e487b7160e01b600052604160045260246000fd5b6001600160e01b03198116811461181f57600080fd5b5056fea264697066735822122063aa52223e31d3489ceb62fc08ae504d87f07274df5ff46691224f43eae93a5164736f6c63430008040033",
  "linkReferences": {},
  "deployedLinkReferences": {}
}