{
  "_format": "hh-sol-artifact-1",
  "contractName": "MyERC721",
  "sourceName": "contracts/sample_upgradeable_ERC721/MyERC721.sol",
  "abi": [
    {
      "anonymous": false,
      "inputs": [
        {
          "indexed": true,
          "internalType": "address",
          "name": "owner",
          "type": "address"
        },
        {
          "indexed": true,
          "internalType": "address",
          "name": "approved",
          "type": "address"
        },
        {
          "indexed": true,
          "internalType": "uint256",
          "name": "tokenId",
          "type": "uint256"
        }
      ],
      "name": "Approval",
      "type": "event"
    },
    {
      "anonymous": false,
      "inputs": [
        {
          "indexed": true,
          "internalType": "address",
          "name": "owner",
          "type": "address"
        },
        {
          "indexed": true,
          "internalType": "address",
          "name": "operator",
          "type": "address"
        },
        {
          "indexed": false,
          "internalType": "bool",
          "name": "approved",
          "type": "bool"
        }
      ],
      "name": "ApprovalForAll",
      "type": "event"
    },
    {
      "anonymous": false,
      "inputs": [
        {
          "indexed": true,
          "internalType": "address",
          "name": "account",
          "type": "address"
        }
      ],
      "name": "MinterAdded",
      "type": "event"
    },
    {
      "anonymous": false,
      "inputs": [
        {
          "indexed": true,
          "internalType": "address",
          "name": "account",
          "type": "address"
        }
      ],
      "name": "MinterRemoved",
      "type": "event"
    },
    {
      "anonymous": false,
      "inputs": [
        {
          "indexed": true,
          "internalType": "address",
          "name": "previousOwner",
          "type": "address"
        },
        {
          "indexed": true,
          "internalType": "address",
          "name": "newOwner",
          "type": "address"
        }
      ],
      "name": "OwnershipTransferred",
      "type": "event"
    },
    {
      "anonymous": false,
      "inputs": [
        {
          "indexed": true,
          "internalType": "address",
          "name": "from",
          "type": "address"
        },
        {
          "indexed": true,
          "internalType": "address",
          "name": "to",
          "type": "address"
        },
        {
          "indexed": true,
          "internalType": "uint256",
          "name": "tokenId",
          "type": "uint256"
        }
      ],
      "name": "Transfer",
      "type": "event"
    },
    {
      "inputs": [
        {
          "internalType": "address",
          "name": "account",
          "type": "address"
        }
      ],
      "name": "addMinter",
      "outputs": [],
      "stateMutability": "nonpayable",
      "type": "function"
    },
    {
      "inputs": [
        {
          "internalType": "address",
          "name": "user",
          "type": "address"
        },
        {
          "internalType": "uint256",
          "name": "requestedCount",
          "type": "uint256"
        }
      ],
      "name": "airDropMint",
      "outputs": [],
      "stateMutability": "nonpayable",
      "type": "function"
    },
    {
      "inputs": [
        {
          "internalType": "address",
          "name": "to",
          "type": "address"
        },
        {
          "internalType": "uint256",
          "name": "tokenId",
          "type": "uint256"
        }
      ],
      "name": "approve",
      "outputs": [],
      "stateMutability": "nonpayable",
      "type": "function"
    },
    {
      "inputs": [
        {
          "internalType": "address",
          "name": "owner",
          "type": "address"
        }
      ],
      "name": "balanceOf",
      "outputs": [
        {
          "internalType": "uint256",
          "name": "",
          "type": "uint256"
        }
      ],
      "stateMutability": "view",
      "type": "function"
    },
    {
      "inputs": [
        {
          "internalType": "uint256",
          "name": "tokenId",
          "type": "uint256"
        }
      ],
      "name": "getApproved",
      "outputs": [
        {
          "internalType": "address",
          "name": "",
          "type": "address"
        }
      ],
      "stateMutability": "view",
      "type": "function"
    },
    {
      "inputs": [
        {
          "internalType": "string",
          "name": "name",
          "type": "string"
        },
        {
          "internalType": "string",
          "name": "symbol",
          "type": "string"
        }
      ],
      "name": "initialize",
      "outputs": [],
      "stateMutability": "nonpayable",
      "type": "function"
    },
    {
      "inputs": [
        {
          "internalType": "address",
          "name": "owner",
          "type": "address"
        },
        {
          "internalType": "address",
          "name": "operator",
          "type": "address"
        }
      ],
      "name": "isApprovedForAll",
      "outputs": [
        {
          "internalType": "bool",
          "name": "",
          "type": "bool"
        }
      ],
      "stateMutability": "view",
      "type": "function"
    },
    {
      "inputs": [
        {
          "internalType": "address",
          "name": "account",
          "type": "address"
        }
      ],
      "name": "isMinter",
      "outputs": [
        {
          "internalType": "bool",
          "name": "",
          "type": "bool"
        }
      ],
      "stateMutability": "view",
      "type": "function"
    },
    {
      "inputs": [],
      "name": "merkleRoot",
      "outputs": [
        {
          "internalType": "bytes32",
          "name": "",
          "type": "bytes32"
        }
      ],
      "stateMutability": "view",
      "type": "function"
    },
    {
      "inputs": [],
      "name": "mintingInformation",
      "outputs": [
        {
          "internalType": "uint256[7]",
          "name": "",
          "type": "uint256[7]"
        }
      ],
      "stateMutability": "view",
      "type": "function"
    },
    {
      "inputs": [],
      "name": "name",
      "outputs": [
        {
          "internalType": "string",
          "name": "",
          "type": "string"
        }
      ],
      "stateMutability": "view",
      "type": "function"
    },
    {
      "inputs": [],
      "name": "owner",
      "outputs": [
        {
          "internalType": "address",
          "name": "",
          "type": "address"
        }
      ],
      "stateMutability": "view",
      "type": "function"
    },
    {
      "inputs": [
        {
          "internalType": "uint256",
          "name": "tokenId",
          "type": "uint256"
        }
      ],
      "name": "ownerOf",
      "outputs": [
        {
          "internalType": "address",
          "name": "",
          "type": "address"
        }
      ],
      "stateMutability": "view",
      "type": "function"
    },
    {
      "inputs": [
        {
          "internalType": "uint256",
          "name": "requestedCount",
          "type": "uint256"
        }
      ],
      "name": "publicMint",
      "outputs": [],
      "stateMutability": "payable",
      "type": "function"
    },
    {
      "inputs": [],
      "name": "publicMintEnabled",
      "outputs": [
        {
          "internalType": "bool",
          "name": "",
          "type": "bool"
        }
      ],
      "stateMutability": "view",
      "type": "function"
    },
    {
      "inputs": [],
      "name": "renounceMinter",
      "outputs": [],
      "stateMutability": "nonpayable",
      "type": "function"
    },
    {
      "inputs": [],
      "name": "renounceOwnership",
      "outputs": [],
      "stateMutability": "nonpayable",
      "type": "function"
    },
    {
      "inputs": [
        {
          "internalType": "bool",
          "name": "_state",
          "type": "bool"
        }
      ],
      "name": "reveal",
      "outputs": [],
      "stateMutability": "nonpayable",
      "type": "function"
    },
    {
      "inputs": [],
      "name": "revealed",
      "outputs": [
        {
          "internalType": "bool",
          "name": "",
          "type": "bool"
        }
      ],
      "stateMutability": "view",
      "type": "function"
    },
    {
      "inputs": [
        {
          "internalType": "address",
          "name": "from",
          "type": "address"
        },
        {
          "internalType": "address",
          "name": "to",
          "type": "address"
        },
        {
          "internalType": "uint256",
          "name": "tokenId",
          "type": "uint256"
        }
      ],
      "name": "safeTransferFrom",
      "outputs": [],
      "stateMutability": "nonpayable",
      "type": "function"
    },
    {
      "inputs": [
        {
          "internalType": "address",
          "name": "from",
          "type": "address"
        },
        {
          "internalType": "address",
          "name": "to",
          "type": "address"
        },
        {
          "internalType": "uint256",
          "name": "tokenId",
          "type": "uint256"
        },
        {
          "internalType": "bytes",
          "name": "_data",
          "type": "bytes"
        }
      ],
      "name": "safeTransferFrom",
      "outputs": [],
      "stateMutability": "nonpayable",
      "type": "function"
    },
    {
      "inputs": [
        {
          "internalType": "address",
          "name": "operator",
          "type": "address"
        },
        {
          "internalType": "bool",
          "name": "approved",
          "type": "bool"
        }
      ],
      "name": "setApprovalForAll",
      "outputs": [],
      "stateMutability": "nonpayable",
      "type": "function"
    },
    {
      "inputs": [
        {
          "internalType": "string",
          "name": "_newBaseURI",
          "type": "string"
        }
      ],
      "name": "setBaseURI",
      "outputs": [],
      "stateMutability": "nonpayable",
      "type": "function"
    },
    {
      "inputs": [
        {
          "internalType": "bytes32",
          "name": "_merkleRoot",
          "type": "bytes32"
        }
      ],
      "name": "setMerkleRoot",
      "outputs": [],
      "stateMutability": "nonpayable",
      "type": "function"
    },
    {
      "inputs": [
        {
          "internalType": "string",
          "name": "_newNotRevealedURI",
          "type": "string"
        }
      ],
      "name": "setNotRevealedURI",
      "outputs": [],
      "stateMutability": "nonpayable",
      "type": "function"
    },
    {
      "inputs": [
        {
          "internalType": "bool",
          "name": "_state",
          "type": "bool"
        }
      ],
      "name": "setPublicMintEnabled",
      "outputs": [],
      "stateMutability": "nonpayable",
      "type": "function"
    },
    {
      "inputs": [
        {
          "internalType": "bool",
          "name": "_state",
          "type": "bool"
        }
      ],
      "name": "setWhitelistMintEnabled",
      "outputs": [],
      "stateMutability": "nonpayable",
      "type": "function"
    },
    {
      "inputs": [
        {
          "internalType": "uint256",
          "name": "newAntibotInterval",
          "type": "uint256"
        },
        {
          "internalType": "uint256",
          "name": "newMintLimitPerBlock",
          "type": "uint256"
        },
        {
          "internalType": "uint256",
          "name": "newMintLimitPerSale",
          "type": "uint256"
        },
        {
          "internalType": "uint256",
          "name": "newMintStartBlockNumber",
          "type": "uint256"
        },
        {
          "internalType": "uint256",
          "name": "newMintIndexForSale",
          "type": "uint256"
        },
        {
          "internalType": "uint256",
          "name": "newMaxSaleAmount",
          "type": "uint256"
        },
        {
          "internalType": "uint256",
          "name": "newMintPrice",
          "type": "uint256"
        }
      ],
      "name": "setupSale",
      "outputs": [],
      "stateMutability": "nonpayable",
      "type": "function"
    },
    {
      "inputs": [
        {
          "internalType": "bytes4",
          "name": "interfaceId",
          "type": "bytes4"
        }
      ],
      "name": "supportsInterface",
      "outputs": [
        {
          "internalType": "bool",
          "name": "",
          "type": "bool"
        }
      ],
      "stateMutability": "view",
      "type": "function"
    },
    {
      "inputs": [],
      "name": "symbol",
      "outputs": [
        {
          "internalType": "string",
          "name": "",
          "type": "string"
        }
      ],
      "stateMutability": "view",
      "type": "function"
    },
    {
      "inputs": [
        {
          "internalType": "uint256",
          "name": "index",
          "type": "uint256"
        }
      ],
      "name": "tokenByIndex",
      "outputs": [
        {
          "internalType": "uint256",
          "name": "",
          "type": "uint256"
        }
      ],
      "stateMutability": "view",
      "type": "function"
    },
    {
      "inputs": [
        {
          "internalType": "address",
          "name": "owner",
          "type": "address"
        },
        {
          "internalType": "uint256",
          "name": "index",
          "type": "uint256"
        }
      ],
      "name": "tokenOfOwnerByIndex",
      "outputs": [
        {
          "internalType": "uint256",
          "name": "",
          "type": "uint256"
        }
      ],
      "stateMutability": "view",
      "type": "function"
    },
    {
      "inputs": [
        {
          "internalType": "uint256",
          "name": "tokenId",
          "type": "uint256"
        }
      ],
      "name": "tokenURI",
      "outputs": [
        {
          "internalType": "string",
          "name": "",
          "type": "string"
        }
      ],
      "stateMutability": "view",
      "type": "function"
    },
    {
      "inputs": [],
      "name": "totalSupply",
      "outputs": [
        {
          "internalType": "uint256",
          "name": "",
          "type": "uint256"
        }
      ],
      "stateMutability": "view",
      "type": "function"
    },
    {
      "inputs": [
        {
          "internalType": "address",
          "name": "from",
          "type": "address"
        },
        {
          "internalType": "address",
          "name": "to",
          "type": "address"
        },
        {
          "internalType": "uint256",
          "name": "tokenId",
          "type": "uint256"
        }
      ],
      "name": "transferFrom",
      "outputs": [],
      "stateMutability": "nonpayable",
      "type": "function"
    },
    {
      "inputs": [
        {
          "internalType": "address",
          "name": "newOwner",
          "type": "address"
        }
      ],
      "name": "transferOwnership",
      "outputs": [],
      "stateMutability": "nonpayable",
      "type": "function"
    },
    {
      "inputs": [
        {
          "internalType": "address",
          "name": "",
          "type": "address"
        }
      ],
      "name": "whitelistClaimed",
      "outputs": [
        {
          "internalType": "bool",
          "name": "",
          "type": "bool"
        }
      ],
      "stateMutability": "view",
      "type": "function"
    },
    {
      "inputs": [
        {
          "internalType": "uint256",
          "name": "requestedCount",
          "type": "uint256"
        },
        {
          "internalType": "bytes32[]",
          "name": "_merkleProof",
          "type": "bytes32[]"
        }
      ],
      "name": "whitelistMint",
      "outputs": [],
      "stateMutability": "payable",
      "type": "function"
    },
    {
      "inputs": [],
      "name": "whitelistMintEnabled",
      "outputs": [
        {
          "internalType": "bool",
          "name": "",
          "type": "bool"
        }
      ],
      "stateMutability": "view",
      "type": "function"
    }
  ],
  "bytecode": "0x608060405234801561001057600080fd5b50612ef4806100206000396000f3fe6080604052600436106102305760003560e01c8063715018a61161012e578063a3867561116100ab578063d2cab0561161006f578063d2cab05614610664578063db4bec4414610677578063e985e9c5146106a8578063f2c4ce1e146106f1578063f2fde38b1461071157600080fd5b8063a3867561146105c4578063aa271e1a146105e4578063b767a09814610604578063b88d4fde14610624578063c87b56dd1461064457600080fd5b8063940cd05b116100f2578063940cd05b1461053a57806395d89b411461055a578063983b2d561461056f578063986502751461058f578063a22cb465146105a457600080fd5b8063715018a6146104a757806375a1ed08146104bc5780637cb64759146104dc578063818668d7146104fc5780638da5cb5b1461051c57600080fd5b80632eb4a7ab116101bc5780635183022711610180578063518302271461041157806355f804b31461042c5780636352211e1461044c5780636caede3d1461046c57806370a082311461048757600080fd5b80632eb4a7ab1461037a5780632f745c591461039157806342842e0e146103b15780634cd88b76146103d15780634f6ccce7146103f157600080fd5b80630f4161aa116102035780630f4161aa146102e657806318160ddd146103065780631dd8792b1461032557806323b872dd146103475780632db115441461036757600080fd5b806301ffc9a71461023557806306fdde031461026a578063081812fc1461028c578063095ea7b3146102c4575b600080fd5b34801561024157600080fd5b506102556102503660046128d4565b610731565b60405190151581526020015b60405180910390f35b34801561027657600080fd5b5061027f610742565b6040516102619190612b59565b34801561029857600080fd5b506102ac6102a73660046128bc565b6107d4565b6040516001600160a01b039091168152602001610261565b3480156102d057600080fd5b506102e46102df366004612879565b61086e565b005b3480156102f257600080fd5b5061013a5461025590610100900460ff1681565b34801561031257600080fd5b5060cb545b604051908152602001610261565b34801561033157600080fd5b5061033a610984565b6040516102619190612b28565b34801561035357600080fd5b506102e461036236600461279c565b6109d8565b6102e46103753660046128bc565b610a09565b34801561038657600080fd5b5061031761013b5481565b34801561039d57600080fd5b506103176103ac366004612879565b610c9f565b3480156103bd57600080fd5b506102e46103cc36600461279c565b610d35565b3480156103dd57600080fd5b506102e46103ec36600461290c565b610d50565b3480156103fd57600080fd5b5061031761040c3660046128bc565b610e67565b34801561041d57600080fd5b5061013a546102559060ff1681565b34801561043857600080fd5b506102e4610447366004612975565b610f08565b34801561045857600080fd5b506102ac6104673660046128bc565b610f4a565b34801561047857600080fd5b5061013c546102559060ff1681565b34801561049357600080fd5b506103176104a2366004612750565b610fc1565b3480156104b357600080fd5b506102e4611048565b3480156104c857600080fd5b506102e46104d7366004612879565b61107e565b3480156104e857600080fd5b506102e46104f73660046128bc565b61111f565b34801561050857600080fd5b506102e46105173660046128a2565b61114a565b34801561052857600080fd5b5060fb546001600160a01b03166102ac565b34801561054657600080fd5b506102e46105553660046128a2565b61118a565b34801561056657600080fd5b5061027f6111c8565b34801561057b57600080fd5b506102e461058a366004612750565b6111d7565b34801561059b57600080fd5b506102e4611208565b3480156105b057600080fd5b506102e46105bf366004612850565b611211565b3480156105d057600080fd5b506102e46105df366004612a35565b61121c565b3480156105f057600080fd5b506102556105ff366004612750565b611268565b34801561061057600080fd5b506102e461061f3660046128a2565b611276565b34801561063057600080fd5b506102e461063f3660046127d7565b61131c565b34801561065057600080fd5b5061027f61065f3660046128bc565b611354565b6102e46106723660046129bb565b611443565b34801561068357600080fd5b50610255610692366004612750565b61013d6020526000908152604090205460ff1681565b3480156106b457600080fd5b506102556106c336600461276a565b6001600160a01b039182166000908152606a6020908152604080832093909416825291909152205460ff1690565b3480156106fd57600080fd5b506102e461070c366004612975565b611696565b34801561071d57600080fd5b506102e461072c366004612750565b6116d4565b600061073c8261176c565b92915050565b60606065805461075190612dfc565b80601f016020809104026020016040519081016040528092919081815260200182805461077d90612dfc565b80156107ca5780601f1061079f576101008083540402835291602001916107ca565b820191906000526020600020905b8154815290600101906020018083116107ad57829003601f168201915b5050505050905090565b6000818152606760205260408120546001600160a01b03166108525760405162461bcd60e51b815260206004820152602c60248201527f4552433732313a20617070726f76656420717565727920666f72206e6f6e657860448201526b34b9ba32b73a103a37b5b2b760a11b60648201526084015b60405180910390fd5b506000908152606960205260409020546001600160a01b031690565b600061087982610f4a565b9050806001600160a01b0316836001600160a01b031614156108e75760405162461bcd60e51b815260206004820152602160248201527f4552433732313a20617070726f76616c20746f2063757272656e74206f776e656044820152603960f91b6064820152608401610849565b336001600160a01b0382161480610903575061090381336106c3565b6109755760405162461bcd60e51b815260206004820152603860248201527f4552433732313a20617070726f76652063616c6c6572206973206e6f74206f7760448201527f6e6572206e6f7220617070726f76656420666f7220616c6c00000000000000006064820152608401610849565b61097f8383611791565b505050565b61098c6125b0565b506040805160e08101825261013054815261013154602082015261013254918101919091526101335460608201526101355460808201526101365460a08201526101375460c082015290565b6109e233826117ff565b6109fe5760405162461bcd60e51b815260040161084990612cd2565b61097f8383836118f6565b61013a54610100900460ff16610a615760405162461bcd60e51b815260206004820152601f60248201527f546865207075626c69632073616c65206973206e6f7420656e61626c656421006044820152606401610849565b6101305433600090815261012f60205260409020544391610a829190611a9d565b10610ac45760405162461bcd60e51b8152602060048201526012602482015271109bdd081a5cc81b9bdd08185b1b1bddd95960721b6044820152606401610849565b61013554431015610b095760405162461bcd60e51b815260206004820152600f60248201526e139bdd081e595d081cdd185c9d1959608a1b6044820152606401610849565b600081118015610b1c5750610132548111155b610b385760405162461bcd60e51b815260040161084990612bbe565b61013754610b469082611aa9565b3414610b865760405162461bcd60e51b815260206004820152600f60248201526e2737ba1032b737bab3b41021b7b4b760891b6044820152606401610849565b61013654610b95906001612d6e565b61013154610ba39083611a9d565b1115610be55760405162461bcd60e51b8152602060048201526011602482015270115e18d95959081b585e08185b5bdd5b9d607a1b6044820152606401610849565b6101335481610bf333610fc1565b610bfd9190612d6e565b1115610c4b5760405162461bcd60e51b815260206004820152601c60248201527f457863656564206d617820616d6f756e742070657220706572736f6e000000006044820152606401610849565b60005b81811015610c8857610c633361013154611ab5565b61013154610c72906001611a9d565b6101315580610c8081612e37565b915050610c4e565b505033600090815261012f60205260409020439055565b6000610caa83610fc1565b8210610d0c5760405162461bcd60e51b815260206004820152602b60248201527f455243373231456e756d657261626c653a206f776e657220696e646578206f7560448201526a74206f6620626f756e647360a81b6064820152608401610849565b506001600160a01b0391909116600090815260c960209081526040808320938352929052205490565b61097f8383836040518060200160405280600081525061131c565b600054610100900460ff16610d6b5760005460ff1615610d6f565b303b155b610d8b5760405162461bcd60e51b815260040161084990612c4f565b600054610100900460ff16158015610dad576000805461ffff19166101011790555b610e2085858080601f01602080910402602001604051908101604052809392919081815260200183838082843760009201919091525050604080516020601f89018190048102820181019092528781529250879150869081908401838280828437600092019190915250611c0392505050565b610e28611c34565b610e3133611c5b565b60016101315561013a805461ffff1916905561013c805460ff191690558015610e60576000805461ff00191690555b5050505050565b6000610e7260cb5490565b8210610ed55760405162461bcd60e51b815260206004820152602c60248201527f455243373231456e756d657261626c653a20676c6f62616c20696e646578206f60448201526b7574206f6620626f756e647360a01b6064820152608401610849565b60cb8281548110610ef657634e487b7160e01b600052603260045260246000fd5b90600052602060002001549050919050565b60fb546001600160a01b03163314610f325760405162461bcd60e51b815260040161084990612c9d565b8051610f46906101389060208401906125ce565b5050565b6000818152606760205260408120546001600160a01b03168061073c5760405162461bcd60e51b815260206004820152602960248201527f4552433732313a206f776e657220717565727920666f72206e6f6e657869737460448201526832b73a103a37b5b2b760b91b6064820152608401610849565b60006001600160a01b03821661102c5760405162461bcd60e51b815260206004820152602a60248201527f4552433732313a2062616c616e636520717565727920666f7220746865207a65604482015269726f206164647265737360b01b6064820152608401610849565b506001600160a01b031660009081526068602052604090205490565b60fb546001600160a01b031633146110725760405162461bcd60e51b815260040161084990612c9d565b61107c6000611c9e565b565b61108733611268565b6110a35760405162461bcd60e51b815260040161084990612bff565b600081116110e25760405162461bcd60e51b815260206004820152600c60248201526b1e995c9bc81c995c5d595cdd60a21b6044820152606401610849565b60005b8181101561097f576110fa8361013154611ab5565b61013154611109906001611a9d565b610131558061111781612e37565b9150506110e5565b61112833611268565b6111445760405162461bcd60e51b815260040161084990612bff565b61013b55565b61115333611268565b61116f5760405162461bcd60e51b815260040161084990612bff565b61013a80549115156101000261ff0019909216919091179055565b60fb546001600160a01b031633146111b45760405162461bcd60e51b815260040161084990612c9d565b61013a805460ff1916911515919091179055565b60606066805461075190612dfc565b6111e033611268565b6111fc5760405162461bcd60e51b815260040161084990612bff565b61120581611c5b565b50565b61107c33611cf0565b610f46338383611d33565b61122533611268565b6112415760405162461bcd60e51b815260040161084990612bff565b61013096909655610132949094556101339290925561013555610131556101365561013755565b600061073c61012d83611e02565b61127f33611268565b61129b5760405162461bcd60e51b815260040161084990612bff565b600054610100900460ff166112b65760005460ff16156112ba565b303b155b6112d65760405162461bcd60e51b815260040161084990612c4f565b600054610100900460ff161580156112f8576000805461ffff19166101011790555b61013c805460ff19168315151790558015610f46576000805461ff00191690555050565b61132633836117ff565b6113425760405162461bcd60e51b815260040161084990612cd2565b61134e84848484611e85565b50505050565b6000818152606760205260409020546060906001600160a01b03166113d25760405162461bcd60e51b815260206004820152602e60248201527f4b495031374d657461646174613a2055524920717565727920666f72206e6f6e60448201526d32bc34b9ba32b73a103a37b5b2b760911b6064820152608401610849565b61013a5460ff166114395760006113e7611eb8565b905060008151116114075760405180602001604052806000815250611432565b8061141184611ec8565b604051602001611422929190612aac565b6040516020818303038152906040525b9392505050565b60006113e7611fe2565b61013c5460ff166114a15760405162461bcd60e51b815260206004820152602260248201527f5468652077686974656c6973742073616c65206973206e6f7420656e61626c65604482015261642160f01b6064820152608401610849565b610137546114af9084611aa9565b34146114ef5760405162461bcd60e51b815260206004820152600f60248201526e2737ba1032b737bab3b41021b7b4b760891b6044820152606401610849565b33600090815261013d602052604090205460ff16156115505760405162461bcd60e51b815260206004820152601860248201527f4164647265737320616c726561647920636c61696d65642100000000000000006044820152606401610849565b6000831180156115635750610132548311155b61157f5760405162461bcd60e51b815260040161084990612bbe565b6040516bffffffffffffffffffffffff193360601b1660208201526000906034016040516020818303038152906040528051906020012090506115fa8383808060200260200160405190810160405280939291908181526020018383602002808284376000920191909152505061013b549150849050611ff2565b6116375760405162461bcd60e51b815260206004820152600e60248201526d496e76616c69642070726f6f662160901b6044820152606401610849565b60005b848110156116745761164f3361013154611ab5565b6101315461165e906001611a9d565b610131558061166c81612e37565b91505061163a565b505033600090815261013d60205260409020805460ff19166001179055505050565b60fb546001600160a01b031633146116c05760405162461bcd60e51b815260040161084990612c9d565b8051610f46906101399060208401906125ce565b60fb546001600160a01b031633146116fe5760405162461bcd60e51b815260040161084990612c9d565b6001600160a01b0381166117635760405162461bcd60e51b815260206004820152602660248201527f4f776e61626c653a206e6577206f776e657220697320746865207a65726f206160448201526564647265737360d01b6064820152608401610849565b61120581611c9e565b60006001600160e01b0319821663780e9d6360e01b148061073c575061073c82612008565b600081815260696020526040902080546001600160a01b0319166001600160a01b03841690811790915581906117c682610f4a565b6001600160a01b03167f8c5be1e5ebec7d5bd14f71427d1e84f3dd0314c0f7b2291e5b200ac8c7c3b92560405160405180910390a45050565b6000818152606760205260408120546001600160a01b03166118785760405162461bcd60e51b815260206004820152602c60248201527f4552433732313a206f70657261746f7220717565727920666f72206e6f6e657860448201526b34b9ba32b73a103a37b5b2b760a11b6064820152608401610849565b600061188383610f4a565b9050806001600160a01b0316846001600160a01b031614806118be5750836001600160a01b03166118b3846107d4565b6001600160a01b0316145b806118ee57506001600160a01b038082166000908152606a602090815260408083209388168352929052205460ff165b949350505050565b826001600160a01b031661190982610f4a565b6001600160a01b03161461196d5760405162461bcd60e51b815260206004820152602560248201527f4552433732313a207472616e736665722066726f6d20696e636f72726563742060448201526437bbb732b960d91b6064820152608401610849565b6001600160a01b0382166119cf5760405162461bcd60e51b8152602060048201526024808201527f4552433732313a207472616e7366657220746f20746865207a65726f206164646044820152637265737360e01b6064820152608401610849565b6119da838383612058565b6119e5600082611791565b6001600160a01b0383166000908152606860205260408120805460019290611a0e908490612db9565b90915550506001600160a01b0382166000908152606860205260408120805460019290611a3c908490612d6e565b909155505060008181526067602052604080822080546001600160a01b0319166001600160a01b0386811691821790925591518493918716917fddf252ad1be2c89b69c2b068fc378daa952ba7f163c4a11628f55a4df523b3ef91a4505050565b60006114328284612d6e565b60006114328284612d9a565b6001600160a01b038216611b0b5760405162461bcd60e51b815260206004820181905260248201527f4552433732313a206d696e7420746f20746865207a65726f20616464726573736044820152606401610849565b6000818152606760205260409020546001600160a01b031615611b705760405162461bcd60e51b815260206004820152601c60248201527f4552433732313a20746f6b656e20616c7265616479206d696e746564000000006044820152606401610849565b611b7c60008383612058565b6001600160a01b0382166000908152606860205260408120805460019290611ba5908490612d6e565b909155505060008181526067602052604080822080546001600160a01b0319166001600160a01b03861690811790915590518392907fddf252ad1be2c89b69c2b068fc378daa952ba7f163c4a11628f55a4df523b3ef908290a45050565b600054610100900460ff16611c2a5760405162461bcd60e51b815260040161084990612d23565b610f468282612063565b600054610100900460ff1661107c5760405162461bcd60e51b815260040161084990612d23565b611c6761012d826120b1565b6040516001600160a01b038216907f6ae172837ea30b801fbfcdd4108aa1d5bf8ff775444fd70256b44e6bf3dfc3f690600090a250565b60fb80546001600160a01b038381166001600160a01b0319831681179093556040519116919082907f8be0079c531659141344cd1fd0a4f28419497f9722a3daafe3b4186f6b6457e090600090a35050565b611cfc61012d8261212d565b6040516001600160a01b038216907fe94479a9f7e1952cc78f2d6baab678adc1b772d936c6583def489e524cb6669290600090a250565b816001600160a01b0316836001600160a01b03161415611d955760405162461bcd60e51b815260206004820152601960248201527f4552433732313a20617070726f766520746f2063616c6c6572000000000000006044820152606401610849565b6001600160a01b038381166000818152606a6020908152604080832094871680845294825291829020805460ff191686151590811790915591519182527f17307eab39ab6107e8899845ad3d59bd9653f200f220920489ca2b5937696c31910160405180910390a3505050565b60006001600160a01b038216611e655760405162461bcd60e51b815260206004820152602260248201527f526f6c65733a206163636f756e7420697320746865207a65726f206164647265604482015261737360f01b6064820152608401610849565b506001600160a01b03166000908152602091909152604090205460ff1690565b611e908484846118f6565b611e9c848484846121af565b61134e5760405162461bcd60e51b815260040161084990612b6c565b6060610139805461075190612dfc565b606081611eec5750506040805180820190915260018152600360fc1b602082015290565b8160005b8115611f165780611f0081612e37565b9150611f0f9050600a83612d86565b9150611ef0565b60008167ffffffffffffffff811115611f3f57634e487b7160e01b600052604160045260246000fd5b6040519080825280601f01601f191660200182016040528015611f69576020820181803683370190505b5090505b84156118ee57611f7e600183612db9565b9150611f8b600a86612e52565b611f96906030612d6e565b60f81b818381518110611fb957634e487b7160e01b600052603260045260246000fd5b60200101906001600160f81b031916908160001a905350611fdb600a86612d86565b9450611f6d565b6060610138805461075190612dfc565b600082611fff85846122bc565b14949350505050565b60006001600160e01b031982166380ac58cd60e01b148061203957506001600160e01b03198216635b5e139f60e01b145b8061073c57506301ffc9a760e01b6001600160e01b031983161461073c565b61097f83838361233e565b600054610100900460ff1661208a5760405162461bcd60e51b815260040161084990612d23565b815161209d9060659060208501906125ce565b50805161097f9060669060208401906125ce565b6120bb8282611e02565b156121085760405162461bcd60e51b815260206004820152601f60248201527f526f6c65733a206163636f756e7420616c72656164792068617320726f6c65006044820152606401610849565b6001600160a01b0316600090815260209190915260409020805460ff19166001179055565b6121378282611e02565b61218d5760405162461bcd60e51b815260206004820152602160248201527f526f6c65733a206163636f756e7420646f6573206e6f74206861766520726f6c6044820152606560f81b6064820152608401610849565b6001600160a01b0316600090815260209190915260409020805460ff19169055565b60006001600160a01b0384163b156122b157604051630a85bd0160e11b81526001600160a01b0385169063150b7a02906121f3903390899088908890600401612aeb565b602060405180830381600087803b15801561220d57600080fd5b505af192505050801561223d575060408051601f3d908101601f1916820190925261223a918101906128f0565b60015b612297573d80801561226b576040519150601f19603f3d011682016040523d82523d6000602084013e612270565b606091505b50805161228f5760405162461bcd60e51b815260040161084990612b6c565b805181602001fd5b6001600160e01b031916630a85bd0160e11b1490506118ee565b506001949350505050565b600081815b84518110156123365760008582815181106122ec57634e487b7160e01b600052603260045260246000fd5b602002602001015190508083116123125760008381526020829052604090209250612323565b600081815260208490526040902092505b508061232e81612e37565b9150506122c1565b509392505050565b6001600160a01b038316612399576123948160cb8054600083815260cc60205260408120829055600182018355919091527fa7ce836d032b2bf62b7e2097a8e0a6d8aeb35405ad15271e96d3b0188a1d06fb0155565b6123bc565b816001600160a01b0316836001600160a01b0316146123bc576123bc83826123f6565b6001600160a01b0382166123d35761097f81612493565b826001600160a01b0316826001600160a01b03161461097f5761097f828261256c565b6000600161240384610fc1565b61240d9190612db9565b600083815260ca6020526040902054909150808214612460576001600160a01b038416600090815260c960209081526040808320858452825280832054848452818420819055835260ca90915290208190555b50600091825260ca602090815260408084208490556001600160a01b03909416835260c981528383209183525290812055565b60cb546000906124a590600190612db9565b600083815260cc602052604081205460cb80549394509092849081106124db57634e487b7160e01b600052603260045260246000fd5b906000526020600020015490508060cb838154811061250a57634e487b7160e01b600052603260045260246000fd5b600091825260208083209091019290925582815260cc909152604080822084905585825281205560cb80548061255057634e487b7160e01b600052603160045260246000fd5b6001900381819060005260206000200160009055905550505050565b600061257783610fc1565b6001600160a01b03909316600090815260c960209081526040808320868452825280832085905593825260ca9052919091209190915550565b6040518060e001604052806007906020820280368337509192915050565b8280546125da90612dfc565b90600052602060002090601f0160209004810192826125fc5760008555612642565b82601f1061261557805160ff1916838001178555612642565b82800160010185558215612642579182015b82811115612642578251825591602001919060010190612627565b5061264e929150612652565b5090565b5b8082111561264e5760008155600101612653565b600067ffffffffffffffff8084111561268257612682612e92565b604051601f8501601f19908116603f011681019082821181831017156126aa576126aa612e92565b816040528093508581528686860111156126c357600080fd5b858560208301376000602087830101525050509392505050565b80356001600160a01b03811681146126f457600080fd5b919050565b803580151581146126f457600080fd5b60008083601f84011261271a578182fd5b50813567ffffffffffffffff811115612731578182fd5b60208301915083602082850101111561274957600080fd5b9250929050565b600060208284031215612761578081fd5b611432826126dd565b6000806040838503121561277c578081fd5b612785836126dd565b9150612793602084016126dd565b90509250929050565b6000806000606084860312156127b0578081fd5b6127b9846126dd565b92506127c7602085016126dd565b9150604084013590509250925092565b600080600080608085870312156127ec578081fd5b6127f5856126dd565b9350612803602086016126dd565b925060408501359150606085013567ffffffffffffffff811115612825578182fd5b8501601f81018713612835578182fd5b61284487823560208401612667565b91505092959194509250565b60008060408385031215612862578182fd5b61286b836126dd565b9150612793602084016126f9565b6000806040838503121561288b578182fd5b612894836126dd565b946020939093013593505050565b6000602082840312156128b3578081fd5b611432826126f9565b6000602082840312156128cd578081fd5b5035919050565b6000602082840312156128e5578081fd5b813561143281612ea8565b600060208284031215612901578081fd5b815161143281612ea8565b60008060008060408587031215612921578384fd5b843567ffffffffffffffff80821115612938578586fd5b61294488838901612709565b9096509450602087013591508082111561295c578384fd5b5061296987828801612709565b95989497509550505050565b600060208284031215612986578081fd5b813567ffffffffffffffff81111561299c578182fd5b8201601f810184136129ac578182fd5b6118ee84823560208401612667565b6000806000604084860312156129cf578081fd5b83359250602084013567ffffffffffffffff808211156129ed578283fd5b818601915086601f830112612a00578283fd5b813581811115612a0e578384fd5b8760208260051b8501011115612a22578384fd5b6020830194508093505050509250925092565b600080600080600080600060e0888a031215612a4f578485fd5b505085359760208701359750604087013596606081013596506080810135955060a0810135945060c0013592509050565b60008151808452612a98816020860160208601612dd0565b601f01601f19169290920160200192915050565b60008351612abe818460208801612dd0565b835190830190612ad2818360208801612dd0565b64173539b7b760d91b9101908152600501949350505050565b6001600160a01b0385811682528416602082015260408101839052608060608201819052600090612b1e90830184612a80565b9695505050505050565b60e08101818360005b6007811015612b50578151835260209283019290910190600101612b31565b50505092915050565b6020815260006114326020830184612a80565b60208082526032908201527f4552433732313a207472616e7366657220746f206e6f6e20455243373231526560408201527131b2b4bb32b91034b6b83632b6b2b73a32b960711b606082015260800190565b60208082526021908201527f546f6f206d616e79207265717565737473206f72207a65726f207265717565736040820152601d60fa1b606082015260800190565b60208082526030908201527f4d696e746572526f6c653a2063616c6c657220646f6573206e6f74206861766560408201526f20746865204d696e74657220726f6c6560801b606082015260800190565b6020808252602e908201527f496e697469616c697a61626c653a20636f6e747261637420697320616c72656160408201526d191e481a5b9a5d1a585b1a5e995960921b606082015260800190565b6020808252818101527f4f776e61626c653a2063616c6c6572206973206e6f7420746865206f776e6572604082015260600190565b60208082526031908201527f4552433732313a207472616e736665722063616c6c6572206973206e6f74206f6040820152701ddb995c881b9bdc88185c1c1c9bdd9959607a1b606082015260800190565b6020808252602b908201527f496e697469616c697a61626c653a20636f6e7472616374206973206e6f74206960408201526a6e697469616c697a696e6760a81b606082015260800190565b60008219821115612d8157612d81612e66565b500190565b600082612d9557612d95612e7c565b500490565b6000816000190483118215151615612db457612db4612e66565b500290565b600082821015612dcb57612dcb612e66565b500390565b60005b83811015612deb578181015183820152602001612dd3565b8381111561134e5750506000910152565b600181811c90821680612e1057607f821691505b60208210811415612e3157634e487b7160e01b600052602260045260246000fd5b50919050565b6000600019821415612e4b57612e4b612e66565b5060010190565b600082612e6157612e61612e7c565b500690565b634e487b7160e01b600052601160045260246000fd5b634e487b7160e01b600052601260045260246000fd5b634e487b7160e01b600052604160045260246000fd5b6001600160e01b03198116811461120557600080fdfea2646970667358221220c47f997b3ed14fe37931e951186840baf1d02ee3f34651883d8d25688b10574964736f6c63430008040033",
  "linkReferences": {},
  "deployedLinkReferences": {}
}