{
  "_format": "hh-sol-artifact-1",
  "contractName": "MyERC20v2",
  "sourceName": "contracts/sample_upgradeable_ERC20/MyERC20_v2.sol",
  "abi": [
    {
      "anonymous": false,
      "inputs": [
        {
          "indexed": true,
          "internalType": "address",
          "name": "owner",
          "type": "address"
        },
        {
          "indexed": true,
          "internalType": "address",
          "name": "spender",
          "type": "address"
        },
        {
          "indexed": false,
          "internalType": "uint256",
          "name": "value",
          "type": "uint256"
        }
      ],
      "name": "Approval",
      "type": "event"
    },
    {
      "anonymous": false,
      "inputs": [
        {
          "indexed": false,
          "internalType": "string",
          "name": "name",
          "type": "string"
        }
      ],
      "name": "NameChanged",
      "type": "event"
    },
    {
      "anonymous": false,
      "inputs": [
        {
          "indexed": true,
          "internalType": "address",
          "name": "from",
          "type": "address"
        },
        {
          "indexed": true,
          "internalType": "address",
          "name": "to",
          "type": "address"
        },
        {
          "indexed": false,
          "internalType": "uint256",
          "name": "value",
          "type": "uint256"
        }
      ],
      "name": "Transfer",
      "type": "event"
    },
    {
      "inputs": [
        {
          "internalType": "address",
          "name": "owner",
          "type": "address"
        },
        {
          "internalType": "address",
          "name": "spender",
          "type": "address"
        }
      ],
      "name": "allowance",
      "outputs": [
        {
          "internalType": "uint256",
          "name": "",
          "type": "uint256"
        }
      ],
      "stateMutability": "view",
      "type": "function"
    },
    {
      "inputs": [
        {
          "internalType": "address",
          "name": "spender",
          "type": "address"
        },
        {
          "internalType": "uint256",
          "name": "amount",
          "type": "uint256"
        }
      ],
      "name": "approve",
      "outputs": [
        {
          "internalType": "bool",
          "name": "",
          "type": "bool"
        }
      ],
      "stateMutability": "nonpayable",
      "type": "function"
    },
    {
      "inputs": [
        {
          "internalType": "address",
          "name": "account",
          "type": "address"
        }
      ],
      "name": "balanceOf",
      "outputs": [
        {
          "internalType": "uint256",
          "name": "",
          "type": "uint256"
        }
      ],
      "stateMutability": "view",
      "type": "function"
    },
    {
      "inputs": [],
      "name": "decimals",
      "outputs": [
        {
          "internalType": "uint8",
          "name": "",
          "type": "uint8"
        }
      ],
      "stateMutability": "view",
      "type": "function"
    },
    {
      "inputs": [
        {
          "internalType": "address",
          "name": "spender",
          "type": "address"
        },
        {
          "internalType": "uint256",
          "name": "subtractedValue",
          "type": "uint256"
        }
      ],
      "name": "decreaseAllowance",
      "outputs": [
        {
          "internalType": "bool",
          "name": "",
          "type": "bool"
        }
      ],
      "stateMutability": "nonpayable",
      "type": "function"
    },
    {
      "inputs": [
        {
          "internalType": "address",
          "name": "spender",
          "type": "address"
        },
        {
          "internalType": "uint256",
          "name": "addedValue",
          "type": "uint256"
        }
      ],
      "name": "increaseAllowance",
      "outputs": [
        {
          "internalType": "bool",
          "name": "",
          "type": "bool"
        }
      ],
      "stateMutability": "nonpayable",
      "type": "function"
    },
    {
      "inputs": [
        {
          "internalType": "string",
          "name": "name",
          "type": "string"
        },
        {
          "internalType": "string",
          "name": "symbol",
          "type": "string"
        }
      ],
      "name": "initialize",
      "outputs": [],
      "stateMutability": "nonpayable",
      "type": "function"
    },
    {
      "inputs": [],
      "name": "name",
      "outputs": [
        {
          "internalType": "string",
          "name": "",
          "type": "string"
        }
      ],
      "stateMutability": "view",
      "type": "function"
    },
    {
      "inputs": [
        {
          "internalType": "string",
          "name": "_testName",
          "type": "string"
        }
      ],
      "name": "setName",
      "outputs": [],
      "stateMutability": "nonpayable",
      "type": "function"
    },
    {
      "inputs": [],
      "name": "symbol",
      "outputs": [
        {
          "internalType": "string",
          "name": "",
          "type": "string"
        }
      ],
      "stateMutability": "view",
      "type": "function"
    },
    {
      "inputs": [],
      "name": "testName",
      "outputs": [
        {
          "internalType": "string",
          "name": "",
          "type": "string"
        }
      ],
      "stateMutability": "view",
      "type": "function"
    },
    {
      "inputs": [],
      "name": "totalSupply",
      "outputs": [
        {
          "internalType": "uint256",
          "name": "",
          "type": "uint256"
        }
      ],
      "stateMutability": "view",
      "type": "function"
    },
    {
      "inputs": [
        {
          "internalType": "address",
          "name": "to",
          "type": "address"
        },
        {
          "internalType": "uint256",
          "name": "amount",
          "type": "uint256"
        }
      ],
      "name": "transfer",
      "outputs": [
        {
          "internalType": "bool",
          "name": "",
          "type": "bool"
        }
      ],
      "stateMutability": "nonpayable",
      "type": "function"
    },
    {
      "inputs": [
        {
          "internalType": "address",
          "name": "from",
          "type": "address"
        },
        {
          "internalType": "address",
          "name": "to",
          "type": "address"
        },
        {
          "internalType": "uint256",
          "name": "amount",
          "type": "uint256"
        }
      ],
      "name": "transferFrom",
      "outputs": [
        {
          "internalType": "bool",
          "name": "",
          "type": "bool"
        }
      ],
      "stateMutability": "nonpayable",
      "type": "function"
    }
  ],
  "bytecode": "0x608060405234801561001057600080fd5b50610ec2806100206000396000f3fe608060405234801561001057600080fd5b50600436106100ea5760003560e01c806370a082311161008c578063a9059cbb11610066578063a9059cbb146101d0578063c47f0027146101e3578063cc8668de146101f6578063dd62ed3e146101fe57600080fd5b806370a082311461018c57806395d89b41146101b5578063a457c2d7146101bd57600080fd5b806323b872dd116100c857806323b872dd14610142578063313ce5671461015557806339509351146101645780634cd88b761461017757600080fd5b806306fdde03146100ef578063095ea7b31461010d57806318160ddd14610130575b600080fd5b6100f7610237565b6040516101049190610cd3565b60405180910390f35b61012061011b366004610b97565b6102c9565b6040519015158152602001610104565b6035545b604051908152602001610104565b610120610150366004610b5c565b6102e1565b60405160128152602001610104565b610120610172366004610b97565b610305565b61018a610185366004610bc0565b610344565b005b61013461019a366004610b09565b6001600160a01b031660009081526033602052604090205490565b6100f7610479565b6101206101cb366004610b97565b610488565b6101206101de366004610b97565b61051a565b61018a6101f1366004610c29565b610528565b6100f7610577565b61013461020c366004610b2a565b6001600160a01b03918216600090815260346020908152604080832093909416825291909152205490565b60606036805461024690610e3b565b80601f016020809104026020016040519081016040528092919081815260200182805461027290610e3b565b80156102bf5780601f10610294576101008083540402835291602001916102bf565b820191906000526020600020905b8154815290600101906020018083116102a257829003601f168201915b5050505050905090565b6000336102d7818585610605565b5060019392505050565b6000336102ef858285610729565b6102fa8585856107bb565b506001949350505050565b3360008181526034602090815260408083206001600160a01b03871684529091528120549091906102d7908290869061033f908790610e17565b610605565b600054610100900460ff1661035f5760005460ff1615610363565b303b155b6103cb5760405162461bcd60e51b815260206004820152602e60248201527f496e697469616c697a61626c653a20636f6e747261637420697320616c72656160448201526d191e481a5b9a5d1a585b1a5e995960921b60648201526084015b60405180910390fd5b600054610100900460ff161580156103ed576000805461ffff19166101011790555b61046085858080601f01602080910402602001604051908101604052809392919081815260200183838082843760009201919091525050604080516020601f8901819004810282018101909252878152925087915086908190840183828082843760009201919091525061098992505050565b8015610472576000805461ff00191690555b5050505050565b60606037805461024690610e3b565b3360008181526034602090815260408083206001600160a01b03871684529091528120549091908381101561050d5760405162461bcd60e51b815260206004820152602560248201527f45524332303a2064656372656173656420616c6c6f77616e63652062656c6f77604482015264207a65726f60d81b60648201526084016103c2565b6102fa8286868403610605565b6000336102d78185856107bb565b805161053b906065906020840190610a0d565b507f4737457377f528cc8afd815f73ecb8b05df80d047dbffc41c17750a4033592bc606560405161056c9190610d26565b60405180910390a150565b6065805461058490610e3b565b80601f01602080910402602001604051908101604052809291908181526020018280546105b090610e3b565b80156105fd5780601f106105d2576101008083540402835291602001916105fd565b820191906000526020600020905b8154815290600101906020018083116105e057829003601f168201915b505050505081565b6001600160a01b0383166106675760405162461bcd60e51b8152602060048201526024808201527f45524332303a20617070726f76652066726f6d20746865207a65726f206164646044820152637265737360e01b60648201526084016103c2565b6001600160a01b0382166106c85760405162461bcd60e51b815260206004820152602260248201527f45524332303a20617070726f766520746f20746865207a65726f206164647265604482015261737360f01b60648201526084016103c2565b6001600160a01b0383811660008181526034602090815260408083209487168084529482529182902085905590518481527f8c5be1e5ebec7d5bd14f71427d1e84f3dd0314c0f7b2291e5b200ac8c7c3b925910160405180910390a3505050565b6001600160a01b0383811660009081526034602090815260408083209386168352929052205460001981146107b557818110156107a85760405162461bcd60e51b815260206004820152601d60248201527f45524332303a20696e73756666696369656e7420616c6c6f77616e636500000060448201526064016103c2565b6107b58484848403610605565b50505050565b6001600160a01b03831661081f5760405162461bcd60e51b815260206004820152602560248201527f45524332303a207472616e736665722066726f6d20746865207a65726f206164604482015264647265737360d81b60648201526084016103c2565b6001600160a01b0382166108815760405162461bcd60e51b815260206004820152602360248201527f45524332303a207472616e7366657220746f20746865207a65726f206164647260448201526265737360e81b60648201526084016103c2565b6001600160a01b038316600090815260336020526040902054818110156108f95760405162461bcd60e51b815260206004820152602660248201527f45524332303a207472616e7366657220616d6f756e7420657863656564732062604482015265616c616e636560d01b60648201526084016103c2565b6001600160a01b03808516600090815260336020526040808220858503905591851681529081208054849290610930908490610e17565b92505081905550826001600160a01b0316846001600160a01b03167fddf252ad1be2c89b69c2b068fc378daa952ba7f163c4a11628f55a4df523b3ef8460405161097c91815260200190565b60405180910390a36107b5565b600054610100900460ff166109b05760405162461bcd60e51b81526004016103c290610dcc565b6109ba82826109c3565b5050565b505050565b600054610100900460ff166109ea5760405162461bcd60e51b81526004016103c290610dcc565b81516109fd906036906020850190610a0d565b5080516109be9060379060208401905b828054610a1990610e3b565b90600052602060002090601f016020900481019282610a3b5760008555610a81565b82601f10610a5457805160ff1916838001178555610a81565b82800160010185558215610a81579182015b82811115610a81578251825591602001919060010190610a66565b50610a8d929150610a91565b5090565b5b80821115610a8d5760008155600101610a92565b80356001600160a01b0381168114610abd57600080fd5b919050565b60008083601f840112610ad3578081fd5b50813567ffffffffffffffff811115610aea578182fd5b602083019150836020828501011115610b0257600080fd5b9250929050565b600060208284031215610b1a578081fd5b610b2382610aa6565b9392505050565b60008060408385031215610b3c578081fd5b610b4583610aa6565b9150610b5360208401610aa6565b90509250929050565b600080600060608486031215610b70578081fd5b610b7984610aa6565b9250610b8760208501610aa6565b9150604084013590509250925092565b60008060408385031215610ba9578182fd5b610bb283610aa6565b946020939093013593505050565b60008060008060408587031215610bd5578081fd5b843567ffffffffffffffff80821115610bec578283fd5b610bf888838901610ac2565b90965094506020870135915080821115610c10578283fd5b50610c1d87828801610ac2565b95989497509550505050565b600060208284031215610c3a578081fd5b813567ffffffffffffffff80821115610c51578283fd5b818401915084601f830112610c64578283fd5b813581811115610c7657610c76610e76565b604051601f8201601f19908116603f01168101908382118183101715610c9e57610c9e610e76565b81604052828152876020848701011115610cb6578586fd5b826020860160208301379182016020019490945295945050505050565b6000602080835283518082850152825b81811015610cff57858101830151858201604001528201610ce3565b81811115610d105783604083870101525b50601f01601f1916929092016040019392505050565b6000602080835281845483600182811c915080831680610d4757607f831692505b858310811415610d6557634e487b7160e01b87526022600452602487fd5b878601838152602001818015610d825760018114610d9357610dbd565b60ff19861682528782019650610dbd565b60008b815260209020895b86811015610db757815484820152908501908901610d9e565b83019750505b50949998505050505050505050565b6020808252602b908201527f496e697469616c697a61626c653a20636f6e7472616374206973206e6f74206960408201526a6e697469616c697a696e6760a81b606082015260800190565b60008219821115610e3657634e487b7160e01b81526011600452602481fd5b500190565b600181811c90821680610e4f57607f821691505b60208210811415610e7057634e487b7160e01b600052602260045260246000fd5b50919050565b634e487b7160e01b600052604160045260246000fdfea26469706673582212206369fb48319df87659d0a9e339338ffb1e4a23b782c0edc962d86e94e494656c64736f6c63430008040033",
  "linkReferences": {},
  "deployedLinkReferences": {}
}